{
  "contractName": "ARKS369",
  "abi": [
    {
      "inputs": [
        {
          "internalType": "string",
          "name": "_name",
          "type": "string"
        },
        {
          "internalType": "string",
          "name": "_symbol",
          "type": "string"
        },
        {
          "internalType": "string",
          "name": "_initBaseURI",
          "type": "string"
        }
      ],
      "stateMutability": "nonpayable",
      "type": "constructor"
    },
    {
      "anonymous": false,
      "inputs": [
        {
          "indexed": true,
          "internalType": "address",
          "name": "owner",
          "type": "address"
        },
        {
          "indexed": true,
          "internalType": "address",
          "name": "approved",
          "type": "address"
        },
        {
          "indexed": true,
          "internalType": "uint256",
          "name": "tokenId",
          "type": "uint256"
        }
      ],
      "name": "Approval",
      "type": "event"
    },
    {
      "anonymous": false,
      "inputs": [
        {
          "indexed": true,
          "internalType": "address",
          "name": "owner",
          "type": "address"
        },
        {
          "indexed": true,
          "internalType": "address",
          "name": "operator",
          "type": "address"
        },
        {
          "indexed": false,
          "internalType": "bool",
          "name": "approved",
          "type": "bool"
        }
      ],
      "name": "ApprovalForAll",
      "type": "event"
    },
    {
      "anonymous": false,
      "inputs": [
        {
          "indexed": true,
          "internalType": "address",
          "name": "previousOwner",
          "type": "address"
        },
        {
          "indexed": true,
          "internalType": "address",
          "name": "newOwner",
          "type": "address"
        }
      ],
      "name": "OwnershipTransferred",
      "type": "event"
    },
    {
      "anonymous": false,
      "inputs": [
        {
          "indexed": true,
          "internalType": "address",
          "name": "from",
          "type": "address"
        },
        {
          "indexed": true,
          "internalType": "address",
          "name": "to",
          "type": "address"
        },
        {
          "indexed": true,
          "internalType": "uint256",
          "name": "tokenId",
          "type": "uint256"
        }
      ],
      "name": "Transfer",
      "type": "event"
    },
    {
      "inputs": [
        {
          "internalType": "address",
          "name": "",
          "type": "address"
        }
      ],
      "name": "addressToCounter",
      "outputs": [
        {
          "internalType": "uint256",
          "name": "",
          "type": "uint256"
        }
      ],
      "stateMutability": "view",
      "type": "function",
      "constant": true
    },
    {
      "inputs": [
        {
          "internalType": "address",
          "name": "to",
          "type": "address"
        },
        {
          "internalType": "uint256",
          "name": "tokenId",
          "type": "uint256"
        }
      ],
      "name": "approve",
      "outputs": [],
      "stateMutability": "nonpayable",
      "type": "function"
    },
    {
      "inputs": [
        {
          "internalType": "address",
          "name": "owner",
          "type": "address"
        }
      ],
      "name": "balanceOf",
      "outputs": [
        {
          "internalType": "uint256",
          "name": "",
          "type": "uint256"
        }
      ],
      "stateMutability": "view",
      "type": "function",
      "constant": true
    },
    {
      "inputs": [],
      "name": "baseExtension",
      "outputs": [
        {
          "internalType": "string",
          "name": "",
          "type": "string"
        }
      ],
      "stateMutability": "view",
      "type": "function",
      "constant": true
    },
    {
      "inputs": [],
      "name": "cost",
      "outputs": [
        {
          "internalType": "uint256",
          "name": "",
          "type": "uint256"
        }
      ],
      "stateMutability": "view",
      "type": "function",
      "constant": true
    },
    {
      "inputs": [
        {
          "internalType": "uint256",
          "name": "tokenId",
          "type": "uint256"
        }
      ],
      "name": "getApproved",
      "outputs": [
        {
          "internalType": "address",
          "name": "",
          "type": "address"
        }
      ],
      "stateMutability": "view",
      "type": "function",
      "constant": true
    },
    {
      "inputs": [],
      "name": "headStart",
      "outputs": [
        {
          "internalType": "uint256",
          "name": "",
          "type": "uint256"
        }
      ],
      "stateMutability": "view",
      "type": "function",
      "constant": true
    },
    {
      "inputs": [
        {
          "internalType": "address",
          "name": "owner",
          "type": "address"
        },
        {
          "internalType": "address",
          "name": "operator",
          "type": "address"
        }
      ],
      "name": "isApprovedForAll",
      "outputs": [
        {
          "internalType": "bool",
          "name": "",
          "type": "bool"
        }
      ],
      "stateMutability": "view",
      "type": "function",
      "constant": true
    },
    {
      "inputs": [],
      "name": "maxMintAmount",
      "outputs": [
        {
          "internalType": "uint256",
          "name": "",
          "type": "uint256"
        }
      ],
      "stateMutability": "view",
      "type": "function",
      "constant": true
    },
    {
      "inputs": [],
      "name": "maxSupply",
      "outputs": [
        {
          "internalType": "uint256",
          "name": "",
          "type": "uint256"
        }
      ],
      "stateMutability": "view",
      "type": "function",
      "constant": true
    },
    {
      "inputs": [],
      "name": "maxTokenPerAddress",
      "outputs": [
        {
          "internalType": "uint256",
          "name": "",
          "type": "uint256"
        }
      ],
      "stateMutability": "view",
      "type": "function",
      "constant": true
    },
    {
      "inputs": [],
      "name": "name",
      "outputs": [
        {
          "internalType": "string",
          "name": "",
          "type": "string"
        }
      ],
      "stateMutability": "view",
      "type": "function",
      "constant": true
    },
    {
      "inputs": [],
      "name": "owner",
      "outputs": [
        {
          "internalType": "address",
          "name": "",
          "type": "address"
        }
      ],
      "stateMutability": "view",
      "type": "function",
      "constant": true
    },
    {
      "inputs": [
        {
          "internalType": "uint256",
          "name": "tokenId",
          "type": "uint256"
        }
      ],
      "name": "ownerOf",
      "outputs": [
        {
          "internalType": "address",
          "name": "",
          "type": "address"
        }
      ],
      "stateMutability": "view",
      "type": "function",
      "constant": true
    },
    {
      "inputs": [],
      "name": "paused",
      "outputs": [
        {
          "internalType": "bool",
          "name": "",
          "type": "bool"
        }
      ],
      "stateMutability": "view",
      "type": "function",
      "constant": true
    },
    {
      "inputs": [],
      "name": "randomResult",
      "outputs": [
        {
          "internalType": "uint256",
          "name": "",
          "type": "uint256"
        }
      ],
      "stateMutability": "view",
      "type": "function",
      "constant": true
    },
    {
      "inputs": [
        {
          "internalType": "bytes32",
          "name": "requestId",
          "type": "bytes32"
        },
        {
          "internalType": "uint256",
          "name": "randomness",
          "type": "uint256"
        }
      ],
      "name": "rawFulfillRandomness",
      "outputs": [],
      "stateMutability": "nonpayable",
      "type": "function"
    },
    {
      "inputs": [],
      "name": "renounceOwnership",
      "outputs": [],
      "stateMutability": "nonpayable",
      "type": "function"
    },
    {
      "inputs": [
        {
          "internalType": "bytes32",
          "name": "",
          "type": "bytes32"
        }
      ],
      "name": "requestIdToGiftValue",
      "outputs": [
        {
          "internalType": "uint256",
          "name": "",
          "type": "uint256"
        }
      ],
      "stateMutability": "view",
      "type": "function",
      "constant": true
    },
    {
      "inputs": [
        {
          "internalType": "bytes32",
          "name": "",
          "type": "bytes32"
        }
      ],
      "name": "requestIdToSupply",
      "outputs": [
        {
          "internalType": "uint256",
          "name": "",
          "type": "uint256"
        }
      ],
      "stateMutability": "view",
      "type": "function",
      "constant": true
    },
    {
      "inputs": [
        {
          "internalType": "address",
          "name": "from",
          "type": "address"
        },
        {
          "internalType": "address",
          "name": "to",
          "type": "address"
        },
        {
          "internalType": "uint256",
          "name": "tokenId",
          "type": "uint256"
        }
      ],
      "name": "safeTransferFrom",
      "outputs": [],
      "stateMutability": "nonpayable",
      "type": "function"
    },
    {
      "inputs": [
        {
          "internalType": "address",
          "name": "from",
          "type": "address"
        },
        {
          "internalType": "address",
          "name": "to",
          "type": "address"
        },
        {
          "internalType": "uint256",
          "name": "tokenId",
          "type": "uint256"
        },
        {
          "internalType": "bytes",
          "name": "_data",
          "type": "bytes"
        }
      ],
      "name": "safeTransferFrom",
      "outputs": [],
      "stateMutability": "nonpayable",
      "type": "function"
    },
    {
      "inputs": [
        {
          "internalType": "address",
          "name": "operator",
          "type": "address"
        },
        {
          "internalType": "bool",
          "name": "approved",
          "type": "bool"
        }
      ],
      "name": "setApprovalForAll",
      "outputs": [],
      "stateMutability": "nonpayable",
      "type": "function"
    },
    {
      "inputs": [
        {
          "internalType": "bytes4",
          "name": "interfaceId",
          "type": "bytes4"
        }
      ],
      "name": "supportsInterface",
      "outputs": [
        {
          "internalType": "bool",
          "name": "",
          "type": "bool"
        }
      ],
      "stateMutability": "view",
      "type": "function",
      "constant": true
    },
    {
      "inputs": [],
      "name": "symbol",
      "outputs": [
        {
          "internalType": "string",
          "name": "",
          "type": "string"
        }
      ],
      "stateMutability": "view",
      "type": "function",
      "constant": true
    },
    {
      "inputs": [
        {
          "internalType": "uint256",
          "name": "index",
          "type": "uint256"
        }
      ],
      "name": "tokenByIndex",
      "outputs": [
        {
          "internalType": "uint256",
          "name": "",
          "type": "uint256"
        }
      ],
      "stateMutability": "view",
      "type": "function",
      "constant": true
    },
    {
      "inputs": [
        {
          "internalType": "address",
          "name": "owner",
          "type": "address"
        },
        {
          "internalType": "uint256",
          "name": "index",
          "type": "uint256"
        }
      ],
      "name": "tokenOfOwnerByIndex",
      "outputs": [
        {
          "internalType": "uint256",
          "name": "",
          "type": "uint256"
        }
      ],
      "stateMutability": "view",
      "type": "function",
      "constant": true
    },
    {
      "inputs": [],
      "name": "totalSupply",
      "outputs": [
        {
          "internalType": "uint256",
          "name": "",
          "type": "uint256"
        }
      ],
      "stateMutability": "view",
      "type": "function",
      "constant": true
    },
    {
      "inputs": [
        {
          "internalType": "address",
          "name": "from",
          "type": "address"
        },
        {
          "internalType": "address",
          "name": "to",
          "type": "address"
        },
        {
          "internalType": "uint256",
          "name": "tokenId",
          "type": "uint256"
        }
      ],
      "name": "transferFrom",
      "outputs": [],
      "stateMutability": "nonpayable",
      "type": "function"
    },
    {
      "inputs": [
        {
          "internalType": "address",
          "name": "newOwner",
          "type": "address"
        }
      ],
      "name": "transferOwnership",
      "outputs": [],
      "stateMutability": "nonpayable",
      "type": "function"
    },
    {
      "inputs": [
        {
          "internalType": "uint256",
          "name": "_mintAmount",
          "type": "uint256"
        }
      ],
      "name": "mint",
      "outputs": [],
      "stateMutability": "payable",
      "type": "function",
      "payable": true
    },
    {
      "inputs": [
        {
          "internalType": "address",
          "name": "_owner",
          "type": "address"
        }
      ],
      "name": "walletOfOwner",
      "outputs": [
        {
          "internalType": "uint256[]",
          "name": "",
          "type": "uint256[]"
        }
      ],
      "stateMutability": "view",
      "type": "function",
      "constant": true
    },
    {
      "inputs": [
        {
          "internalType": "uint256",
          "name": "tokenId",
          "type": "uint256"
        }
      ],
      "name": "tokenURI",
      "outputs": [
        {
          "internalType": "string",
          "name": "",
          "type": "string"
        }
      ],
      "stateMutability": "view",
      "type": "function",
      "constant": true
    },
    {
      "inputs": [
        {
          "internalType": "uint256",
          "name": "_newCost",
          "type": "uint256"
        }
      ],
      "name": "setCost",
      "outputs": [],
      "stateMutability": "nonpayable",
      "type": "function"
    },
    {
      "inputs": [
        {
          "internalType": "string",
          "name": "_newBaseURI",
          "type": "string"
        }
      ],
      "name": "setBaseURI",
      "outputs": [],
      "stateMutability": "nonpayable",
      "type": "function"
    },
    {
      "inputs": [
        {
          "internalType": "string",
          "name": "_newBaseExtension",
          "type": "string"
        }
      ],
      "name": "setBaseExtension",
      "outputs": [],
      "stateMutability": "nonpayable",
      "type": "function"
    },
    {
      "inputs": [
        {
          "internalType": "bool",
          "name": "_state",
          "type": "bool"
        }
      ],
      "name": "pause",
      "outputs": [],
      "stateMutability": "nonpayable",
      "type": "function"
    },
    {
      "inputs": [],
      "name": "withdraw",
      "outputs": [],
      "stateMutability": "payable",
      "type": "function",
      "payable": true
    }
  ],
  "bytecode": "0x610100604052600560c081905264173539b7b760d91b60e09081526200002991600d919062000270565b50670de0b6b3a7640000600e556024600f5560066010556200004f42620bdd8062000456565b6011556012805460ff19169055600d6013556006601481905560036015819055601655601780546001600160a01b03191673e86b5d5562bf50415a7455163525184f490b965f179055601b556001601e55348015620000ad57600080fd5b506040516200326b3803806200326b833981016040819052620000d091620003c9565b738c7382f9d8f56b33781fe506e897a4f1e2d1725573326c977e6efc84e512bb9c30f76e30c160ed06fb848481600090805190602001906200011492919062000270565b5080516200012a90600190602084019062000270565b5050506200014762000141620001a260201b60201c565b620001a6565b6001600160601b0319606092831b811660a052911b166080526200016b81620001f8565b50507f6e75b569a01ef56d18cab6a8e71e6600d6ce853834d4a5748b720d06f878b3a4601c5550655af3107a4000601d55620004ce565b3390565b600a80546001600160a01b038381166001600160a01b0319831681179093556040519116919082907f8be0079c531659141344cd1fd0a4f28419497f9722a3daafe3b4186f6b6457e090600090a35050565b600a546001600160a01b03163314620002575760405162461bcd60e51b815260206004820181905260248201527f4f776e61626c653a2063616c6c6572206973206e6f7420746865206f776e6572604482015260640160405180910390fd5b80516200026c90600c90602084019062000270565b5050565b8280546200027e906200047b565b90600052602060002090601f016020900481019282620002a25760008555620002ed565b82601f10620002bd57805160ff1916838001178555620002ed565b82800160010185558215620002ed579182015b82811115620002ed578251825591602001919060010190620002d0565b50620002fb929150620002ff565b5090565b5b80821115620002fb576000815560010162000300565b600082601f83011262000327578081fd5b81516001600160401b0380821115620003445762000344620004b8565b604051601f8301601f19908116603f011681019082821181831017156200036f576200036f620004b8565b816040528381526020925086838588010111156200038b578485fd5b8491505b83821015620003ae57858201830151818301840152908201906200038f565b83821115620003bf57848385830101525b9695505050505050565b600080600060608486031215620003de578283fd5b83516001600160401b0380821115620003f5578485fd5b620004038783880162000316565b9450602086015191508082111562000419578384fd5b620004278783880162000316565b935060408601519150808211156200043d578283fd5b506200044c8682870162000316565b9150509250925092565b600082198211156200047657634e487b7160e01b81526011600452602481fd5b500190565b600181811c908216806200049057607f821691505b60208210811415620004b257634e487b7160e01b600052602260045260246000fd5b50919050565b634e487b7160e01b600052604160045260246000fd5b60805160601c60a05160601c612d4e6200051d60003960008181610fc30152611dee015260008181610b6001528181610c0c015281816112c0015281816114110152611dbf0152612d4e6000f3fe6080604052600436106102255760003560e01c80635c975abb11610123578063a22cb465116100ab578063da3ef23f1161006f578063da3ef23f14610625578063e985e9c514610645578063ecf768e71461068e578063f2fde38b146106bb578063f55974ca146106db57600080fd5b8063a22cb4651461059a578063b88d4fde146105ba578063c6682862146105da578063c87b56dd146105ef578063d5abeb011461060f57600080fd5b8063715018a6116100f2578063715018a61461051f5780638da5cb5b1461053457806394985ddd1461055257806395d89b4114610572578063a0712d681461058757600080fd5b80635c975abb146104af5780635e4cac40146104c95780636352211e146104df57806370a08231146104ff57600080fd5b80632f745c59116101b1578063438b630011610175578063438b6300146103f557806344a0d68a146104225780634f6ccce71461044257806355f804b314610462578063592dbb901461048257600080fd5b80632f745c591461036a5780633ccfd60b1461038a5780633d8ec45a1461039257806342619f66146103bf57806342842e0e146103d557600080fd5b8063095ea7b3116101f8578063095ea7b3146102db57806313faede6146102fb57806318160ddd1461031f578063239c70ae1461033457806323b872dd1461034a57600080fd5b806301ffc9a71461022a57806302329a291461025f57806306fdde0314610281578063081812fc146102a3575b600080fd5b34801561023657600080fd5b5061024a61024536600461289a565b6106f1565b60405190151581526020015b60405180910390f35b34801561026b57600080fd5b5061027f61027a366004612829565b61071c565b005b34801561028d57600080fd5b50610296610762565b6040516102569190612acf565b3480156102af57600080fd5b506102c36102be366004612861565b6107f4565b6040516001600160a01b039091168152602001610256565b3480156102e757600080fd5b5061027f6102f6366004612800565b610889565b34801561030757600080fd5b50610311600e5481565b604051908152602001610256565b34801561032b57600080fd5b50600854610311565b34801561034057600080fd5b5061031160105481565b34801561035657600080fd5b5061027f610365366004612716565b61099f565b34801561037657600080fd5b50610311610385366004612800565b6109d0565b61027f610a66565b34801561039e57600080fd5b506103116103ad366004612861565b60186020526000908152604090205481565b3480156103cb57600080fd5b50610311601e5481565b3480156103e157600080fd5b5061027f6103f0366004612716565b610c9a565b34801561040157600080fd5b506104156104103660046126ca565b610cb5565b6040516102569190612a8b565b34801561042e57600080fd5b5061027f61043d366004612861565b610d73565b34801561044e57600080fd5b5061031161045d366004612861565b610da2565b34801561046e57600080fd5b5061027f61047d3660046128d2565b610e43565b34801561048e57600080fd5b5061031161049d366004612861565b60196020526000908152604090205481565b3480156104bb57600080fd5b5060125461024a9060ff1681565b3480156104d557600080fd5b50610311601b5481565b3480156104eb57600080fd5b506102c36104fa366004612861565b610e84565b34801561050b57600080fd5b5061031161051a3660046126ca565b610efb565b34801561052b57600080fd5b5061027f610f82565b34801561054057600080fd5b50600a546001600160a01b03166102c3565b34801561055e57600080fd5b5061027f61056d366004612879565b610fb8565b34801561057e57600080fd5b5061029661103a565b61027f610595366004612861565b611049565b3480156105a657600080fd5b5061027f6105b53660046127ca565b6115ce565b3480156105c657600080fd5b5061027f6105d5366004612751565b611693565b3480156105e657600080fd5b506102966116c5565b3480156105fb57600080fd5b5061029661060a366004612861565b611753565b34801561061b57600080fd5b50610311600f5481565b34801561063157600080fd5b5061027f6106403660046128d2565b611831565b34801561065157600080fd5b5061024a6106603660046126e4565b6001600160a01b03918216600090815260056020908152604080832093909416825291909152205460ff1690565b34801561069a57600080fd5b506103116106a93660046126ca565b601a6020526000908152604090205481565b3480156106c757600080fd5b5061027f6106d63660046126ca565b61186e565b3480156106e757600080fd5b5061031160115481565b60006001600160e01b0319821663780e9d6360e01b1480610716575061071682611909565b92915050565b600a546001600160a01b0316331461074f5760405162461bcd60e51b815260040161074690612b34565b60405180910390fd5b6012805460ff1916911515919091179055565b60606000805461077190612c48565b80601f016020809104026020016040519081016040528092919081815260200182805461079d90612c48565b80156107ea5780601f106107bf576101008083540402835291602001916107ea565b820191906000526020600020905b8154815290600101906020018083116107cd57829003601f168201915b5050505050905090565b6000818152600260205260408120546001600160a01b031661086d5760405162461bcd60e51b815260206004820152602c60248201527f4552433732313a20617070726f76656420717565727920666f72206e6f6e657860448201526b34b9ba32b73a103a37b5b2b760a11b6064820152608401610746565b506000908152600460205260409020546001600160a01b031690565b600061089482610e84565b9050806001600160a01b0316836001600160a01b031614156109025760405162461bcd60e51b815260206004820152602160248201527f4552433732313a20617070726f76616c20746f2063757272656e74206f776e656044820152603960f91b6064820152608401610746565b336001600160a01b038216148061091e575061091e8133610660565b6109905760405162461bcd60e51b815260206004820152603860248201527f4552433732313a20617070726f76652063616c6c6572206973206e6f74206f7760448201527f6e6572206e6f7220617070726f76656420666f7220616c6c00000000000000006064820152608401610746565b61099a8383611959565b505050565b6109a933826119c7565b6109c55760405162461bcd60e51b815260040161074690612b69565b61099a838383611abe565b60006109db83610efb565b8210610a3d5760405162461bcd60e51b815260206004820152602b60248201527f455243373231456e756d657261626c653a206f776e657220696e646578206f7560448201526a74206f6620626f756e647360a81b6064820152608401610746565b506001600160a01b03919091166000908152600660209081526040808320938352929052205490565b600a546001600160a01b03163314610a905760405162461bcd60e51b815260040161074690612b34565b6000610a9b60085490565b9050600f54811480610aaf57506011544210155b610af35760405162461bcd60e51b815260206004820152601560248201527421b0b7103737ba103bb4ba34323930bb903cb2ba1760591b6044820152606401610746565b604051600090339047908381818185875af1925050503d8060008114610b35576040519150601f19603f3d011682016040523d82523d6000602084013e610b3a565b606091505b5050905080610b4857600080fd5b6040516370a0823160e01b81523060048201526000907f00000000000000000000000000000000000000000000000000000000000000006001600160a01b0316906370a082319060240160206040518083038186803b158015610baa57600080fd5b505afa158015610bbe573d6000803e3d6000fd5b505050506040513d601f19601f82011682018060405250810190610be29190612918565b60405163a9059cbb60e01b8152336004820152602481018290529091506000906001600160a01b037f0000000000000000000000000000000000000000000000000000000000000000169063a9059cbb90604401602060405180830381600087803b158015610c5057600080fd5b505af1158015610c64573d6000803e3d6000fd5b505050506040513d601f19601f82011682018060405250810190610c889190612845565b905080610c9457600080fd5b50505050565b61099a83838360405180602001604052806000815250611693565b60606000610cc283610efb565b905060008167ffffffffffffffff811115610ced57634e487b7160e01b600052604160045260246000fd5b604051908082528060200260200182016040528015610d16578160200160208202803683370190505b50905060005b82811015610d6b57610d2e85826109d0565b828281518110610d4e57634e487b7160e01b600052603260045260246000fd5b602090810291909101015280610d6381612c83565b915050610d1c565b509392505050565b600a546001600160a01b03163314610d9d5760405162461bcd60e51b815260040161074690612b34565b600e55565b6000610dad60085490565b8210610e105760405162461bcd60e51b815260206004820152602c60248201527f455243373231456e756d657261626c653a20676c6f62616c20696e646578206f60448201526b7574206f6620626f756e647360a01b6064820152608401610746565b60088281548110610e3157634e487b7160e01b600052603260045260246000fd5b90600052602060002001549050919050565b600a546001600160a01b03163314610e6d5760405162461bcd60e51b815260040161074690612b34565b8051610e8090600c90602084019061259f565b5050565b6000818152600260205260408120546001600160a01b0316806107165760405162461bcd60e51b815260206004820152602960248201527f4552433732313a206f776e657220717565727920666f72206e6f6e657869737460448201526832b73a103a37b5b2b760b91b6064820152608401610746565b60006001600160a01b038216610f665760405162461bcd60e51b815260206004820152602a60248201527f4552433732313a2062616c616e636520717565727920666f7220746865207a65604482015269726f206164647265737360b01b6064820152608401610746565b506001600160a01b031660009081526003602052604090205490565b600a546001600160a01b03163314610fac5760405162461bcd60e51b815260040161074690612b34565b610fb66000611c69565b565b336001600160a01b037f000000000000000000000000000000000000000000000000000000000000000016146110305760405162461bcd60e51b815260206004820152601f60248201527f4f6e6c7920565246436f6f7264696e61746f722063616e2066756c66696c6c006044820152606401610746565b610e808282611cbb565b60606001805461077190612c48565b600061105460085490565b60125490915060ff16156110a05760405162461bcd60e51b8152602060048201526013602482015272436f6e7472616374206973207061757365642160681b6044820152606401610746565b600082116110ad57600080fd5b6010548211156110bc57600080fd5b600f546110c98383612bba565b111561110d5760405162461bcd60e51b81526020600482015260136024820152724d617820737570706c7920726561636865642160681b6044820152606401610746565b600a546001600160a01b031633141561115e5760405162461bcd60e51b81526020600482015260136024820152724f776e65722063616e206e6f74206d696e742160681b6044820152606401610746565b81600e5461116c9190612be6565b3410156111af5760405162461bcd60e51b81526020600482015260116024820152704e6f7420656e6f7567682066756e64732160781b6044820152606401610746565b601b54336000908152601a60205260409020546111cd908490612bba565b11156112275760405162461bcd60e51b815260206004820152602360248201527f546f6b656e206c696d697420726561636865642062792074686973206164647260448201526265737360e81b6064820152608401610746565b60008060015b84811161125957611247336112428387612bba565b611da1565b8061125181612c83565b91505061122d565b508215610c9457600f5461126d8585612bba565b14156113d3576016546064601554476112869190612be6565b6112909190612bd2565b61129a9190612bd2565b915060015b60165481116113cd57601d546040516370a0823160e01b81523060048201527f00000000000000000000000000000000000000000000000000000000000000006001600160a01b0316906370a082319060240160206040518083038186803b15801561130a57600080fd5b505afa15801561131e573d6000803e3d6000fd5b505050506040513d601f19601f820116820180604052508101906113429190612918565b10156113825760405162461bcd60e51b815260206004820152600f60248201526e4e6f7420656e6f756768204c494e4b60881b6044820152606401610746565b6000611392601c54601d54611dbb565b905061139d60085490565b600091825260186020908152604080842092909255601990529020839055806113c581612c83565b91505061129f565b50610c94565b6064601454346113e39190612be6565b6113ed9190612bd2565b601d546040516370a0823160e01b8152306004820152919350906001600160a01b037f000000000000000000000000000000000000000000000000000000000000000016906370a082319060240160206040518083038186803b15801561145357600080fd5b505afa158015611467573d6000803e3d6000fd5b505050506040513d601f19601f8201168201806040525081019061148b9190612918565b10156114cb5760405162461bcd60e51b815260206004820152600f60248201526e4e6f7420656e6f756768204c494e4b60881b6044820152606401610746565b60006114db601c54601d54611dbb565b90506114e660085490565b60008281526018602090815260408083209390935560199052208390556013546103e8906115149034612be6565b61151e9190612bd2565b6017546040519193506000916001600160a01b039091169084908381818185875af1925050503d8060008114611570576040519150601f19603f3d011682016040523d82523d6000602084013e611575565b606091505b50509050806115c65760405162461bcd60e51b815260206004820152601c60248201527f436f756c64206e6f742073656e642076616c756520746f204f4e4721000000006044820152606401610746565b505050505050565b6001600160a01b0382163314156116275760405162461bcd60e51b815260206004820152601960248201527f4552433732313a20617070726f766520746f2063616c6c6572000000000000006044820152606401610746565b3360008181526005602090815260408083206001600160a01b03871680855290835292819020805460ff191686151590811790915590519081529192917f17307eab39ab6107e8899845ad3d59bd9653f200f220920489ca2b5937696c31910160405180910390a35050565b61169d33836119c7565b6116b95760405162461bcd60e51b815260040161074690612b69565b610c9484848484611f46565b600d80546116d290612c48565b80601f01602080910402602001604051908101604052809291908181526020018280546116fe90612c48565b801561174b5780601f106117205761010080835404028352916020019161174b565b820191906000526020600020905b81548152906001019060200180831161172e57829003601f168201915b505050505081565b6000818152600260205260409020546060906001600160a01b03166117d25760405162461bcd60e51b815260206004820152602f60248201527f4552433732314d657461646174613a2055524920717565727920666f72206e6f60448201526e3732bc34b9ba32b73a103a37b5b2b760891b6064820152608401610746565b60006117dc611f79565b905060008151116117fc576040518060200160405280600081525061182a565b8061180684611f88565b600d60405160200161181a9392919061295c565b6040516020818303038152906040525b9392505050565b600a546001600160a01b0316331461185b5760405162461bcd60e51b815260040161074690612b34565b8051610e8090600d90602084019061259f565b600a546001600160a01b031633146118985760405162461bcd60e51b815260040161074690612b34565b6001600160a01b0381166118fd5760405162461bcd60e51b815260206004820152602660248201527f4f776e61626c653a206e6577206f776e657220697320746865207a65726f206160448201526564647265737360d01b6064820152608401610746565b61190681611c69565b50565b60006001600160e01b031982166380ac58cd60e01b148061193a57506001600160e01b03198216635b5e139f60e01b145b8061071657506301ffc9a760e01b6001600160e01b0319831614610716565b600081815260046020526040902080546001600160a01b0319166001600160a01b038416908117909155819061198e82610e84565b6001600160a01b03167f8c5be1e5ebec7d5bd14f71427d1e84f3dd0314c0f7b2291e5b200ac8c7c3b92560405160405180910390a45050565b6000818152600260205260408120546001600160a01b0316611a405760405162461bcd60e51b815260206004820152602c60248201527f4552433732313a206f70657261746f7220717565727920666f72206e6f6e657860448201526b34b9ba32b73a103a37b5b2b760a11b6064820152608401610746565b6000611a4b83610e84565b9050806001600160a01b0316846001600160a01b03161480611a865750836001600160a01b0316611a7b846107f4565b6001600160a01b0316145b80611ab657506001600160a01b0380821660009081526005602090815260408083209388168352929052205460ff165b949350505050565b826001600160a01b0316611ad182610e84565b6001600160a01b031614611b395760405162461bcd60e51b815260206004820152602960248201527f4552433732313a207472616e73666572206f6620746f6b656e2074686174206960448201526839903737ba1037bbb760b91b6064820152608401610746565b6001600160a01b038216611b9b5760405162461bcd60e51b8152602060048201526024808201527f4552433732313a207472616e7366657220746f20746865207a65726f206164646044820152637265737360e01b6064820152608401610746565b611ba68383836120a2565b611bb1600082611959565b6001600160a01b0383166000908152600360205260408120805460019290611bda908490612c05565b90915550506001600160a01b0382166000908152600360205260408120805460019290611c08908490612bba565b909155505060008181526002602052604080822080546001600160a01b0319166001600160a01b0386811691821790925591518493918716917fddf252ad1be2c89b69c2b068fc378daa952ba7f163c4a11628f55a4df523b3ef91a4505050565b600a80546001600160a01b038381166001600160a01b0319831681179093556040519116919082907f8be0079c531659141344cd1fd0a4f28419497f9722a3daafe3b4186f6b6457e090600090a35050565b600082815260186020908152604080832054601990925290912054339190611ce38285612c9e565b611cee906001612bba565b601e819055611cfc90610e84565b92506000836001600160a01b03168260405160006040518083038185875af1925050503d8060008114611d4b576040519150601f19603f3d011682016040523d82523d6000602084013e611d50565b606091505b50509050806115c65760405162461bcd60e51b815260206004820152601b60248201527f436f756c64206e6f742073656e642066696e616c2076616c75652100000000006044820152606401610746565b610e8082826040518060200160405280600081525061215a565b60007f00000000000000000000000000000000000000000000000000000000000000006001600160a01b0316634000aea07f000000000000000000000000000000000000000000000000000000000000000084866000604051602001611e2b929190918252602082015260400190565b6040516020818303038152906040526040518463ffffffff1660e01b8152600401611e5893929190612a5b565b602060405180830381600087803b158015611e7257600080fd5b505af1158015611e86573d6000803e3d6000fd5b505050506040513d601f19601f82011682018060405250810190611eaa9190612845565b506000838152600b6020818152604080842054815180840189905280830186905230606082015260808082018390528351808303909101815260a090910190925281519183019190912093879052919052611f06906001612bba565b6000858152600b6020526040902055611ab68482604080516020808201949094528082019290925280518083038201815260609092019052805191012090565b611f51848484611abe565b611f5d8484848461218d565b610c945760405162461bcd60e51b815260040161074690612ae2565b6060600c805461077190612c48565b606081611fac5750506040805180820190915260018152600360fc1b602082015290565b8160005b8115611fd65780611fc081612c83565b9150611fcf9050600a83612bd2565b9150611fb0565b60008167ffffffffffffffff811115611fff57634e487b7160e01b600052604160045260246000fd5b6040519080825280601f01601f191660200182016040528015612029576020820181803683370190505b5090505b8415611ab65761203e600183612c05565b915061204b600a86612c9e565b612056906030612bba565b60f81b81838151811061207957634e487b7160e01b600052603260045260246000fd5b60200101906001600160f81b031916908160001a90535061209b600a86612bd2565b945061202d565b6001600160a01b0383166120fd576120f881600880546000838152600960205260408120829055600182018355919091527ff3f7a9fe364faab93b216da50a3214154f22a0a2b415b23a84c8169e8b636ee30155565b612120565b816001600160a01b0316836001600160a01b031614612120576121208382612297565b6001600160a01b0382166121375761099a81612334565b826001600160a01b0316826001600160a01b03161461099a5761099a828261240d565b6121648383612451565b612171600084848461218d565b61099a5760405162461bcd60e51b815260040161074690612ae2565b60006001600160a01b0384163b1561228f57604051630a85bd0160e11b81526001600160a01b0385169063150b7a02906121d1903390899088908890600401612a1e565b602060405180830381600087803b1580156121eb57600080fd5b505af192505050801561221b575060408051601f3d908101601f19168201909252612218918101906128b6565b60015b612275573d808015612249576040519150601f19603f3d011682016040523d82523d6000602084013e61224e565b606091505b50805161226d5760405162461bcd60e51b815260040161074690612ae2565b805181602001fd5b6001600160e01b031916630a85bd0160e11b149050611ab6565b506001611ab6565b600060016122a484610efb565b6122ae9190612c05565b600083815260076020526040902054909150808214612301576001600160a01b03841660009081526006602090815260408083208584528252808320548484528184208190558352600790915290208190555b5060009182526007602090815260408084208490556001600160a01b039094168352600681528383209183525290812055565b60085460009061234690600190612c05565b6000838152600960205260408120546008805493945090928490811061237c57634e487b7160e01b600052603260045260246000fd5b9060005260206000200154905080600883815481106123ab57634e487b7160e01b600052603260045260246000fd5b60009182526020808320909101929092558281526009909152604080822084905585825281205560088054806123f157634e487b7160e01b600052603160045260246000fd5b6001900381819060005260206000200160009055905550505050565b600061241883610efb565b6001600160a01b039093166000908152600660209081526040808320868452825280832085905593825260079052919091209190915550565b6001600160a01b0382166124a75760405162461bcd60e51b815260206004820181905260248201527f4552433732313a206d696e7420746f20746865207a65726f20616464726573736044820152606401610746565b6000818152600260205260409020546001600160a01b03161561250c5760405162461bcd60e51b815260206004820152601c60248201527f4552433732313a20746f6b656e20616c7265616479206d696e746564000000006044820152606401610746565b612518600083836120a2565b6001600160a01b0382166000908152600360205260408120805460019290612541908490612bba565b909155505060008181526002602052604080822080546001600160a01b0319166001600160a01b03861690811790915590518392907fddf252ad1be2c89b69c2b068fc378daa952ba7f163c4a11628f55a4df523b3ef908290a45050565b8280546125ab90612c48565b90600052602060002090601f0160209004810192826125cd5760008555612613565b82601f106125e657805160ff1916838001178555612613565b82800160010185558215612613579182015b828111156126135782518255916020019190600101906125f8565b5061261f929150612623565b5090565b5b8082111561261f5760008155600101612624565b600067ffffffffffffffff8084111561265357612653612cde565b604051601f8501601f19908116603f0116810190828211818310171561267b5761267b612cde565b8160405280935085815286868601111561269457600080fd5b858560208301376000602087830101525050509392505050565b80356001600160a01b03811681146126c557600080fd5b919050565b6000602082840312156126db578081fd5b61182a826126ae565b600080604083850312156126f6578081fd5b6126ff836126ae565b915061270d602084016126ae565b90509250929050565b60008060006060848603121561272a578081fd5b612733846126ae565b9250612741602085016126ae565b9150604084013590509250925092565b60008060008060808587031215612766578081fd5b61276f856126ae565b935061277d602086016126ae565b925060408501359150606085013567ffffffffffffffff81111561279f578182fd5b8501601f810187136127af578182fd5b6127be87823560208401612638565b91505092959194509250565b600080604083850312156127dc578182fd5b6127e5836126ae565b915060208301356127f581612cf4565b809150509250929050565b60008060408385031215612812578182fd5b61281b836126ae565b946020939093013593505050565b60006020828403121561283a578081fd5b813561182a81612cf4565b600060208284031215612856578081fd5b815161182a81612cf4565b600060208284031215612872578081fd5b5035919050565b6000806040838503121561288b578182fd5b50508035926020909101359150565b6000602082840312156128ab578081fd5b813561182a81612d02565b6000602082840312156128c7578081fd5b815161182a81612d02565b6000602082840312156128e3578081fd5b813567ffffffffffffffff8111156128f9578182fd5b8201601f81018413612909578182fd5b611ab684823560208401612638565b600060208284031215612929578081fd5b5051919050565b60008151808452612948816020860160208601612c1c565b601f01601f19169290920160200192915050565b60008451602061296f8285838a01612c1c565b8551918401916129828184848a01612c1c565b85549201918390600181811c908083168061299e57607f831692505b8583108114156129bc57634e487b7160e01b88526022600452602488fd5b8080156129d057600181146129e157612a0d565b60ff19851688528388019550612a0d565b60008b815260209020895b85811015612a055781548a8201529084019088016129ec565b505083880195505b50939b9a5050505050505050505050565b6001600160a01b0385811682528416602082015260408101839052608060608201819052600090612a5190830184612930565b9695505050505050565b60018060a01b0384168152826020820152606060408201526000612a826060830184612930565b95945050505050565b6020808252825182820181905260009190848201906040850190845b81811015612ac357835183529284019291840191600101612aa7565b50909695505050505050565b60208152600061182a6020830184612930565b60208082526032908201527f4552433732313a207472616e7366657220746f206e6f6e20455243373231526560408201527131b2b4bb32b91034b6b83632b6b2b73a32b960711b606082015260800190565b6020808252818101527f4f776e61626c653a2063616c6c6572206973206e6f7420746865206f776e6572604082015260600190565b60208082526031908201527f4552433732313a207472616e736665722063616c6c6572206973206e6f74206f6040820152701ddb995c881b9bdc88185c1c1c9bdd9959607a1b606082015260800190565b60008219821115612bcd57612bcd612cb2565b500190565b600082612be157612be1612cc8565b500490565b6000816000190483118215151615612c0057612c00612cb2565b500290565b600082821015612c1757612c17612cb2565b500390565b60005b83811015612c37578181015183820152602001612c1f565b83811115610c945750506000910152565b600181811c90821680612c5c57607f821691505b60208210811415612c7d57634e487b7160e01b600052602260045260246000fd5b50919050565b6000600019821415612c9757612c97612cb2565b5060010190565b600082612cad57612cad612cc8565b500690565b634e487b7160e01b600052601160045260246000fd5b634e487b7160e01b600052601260045260246000fd5b634e487b7160e01b600052604160045260246000fd5b801515811461190657600080fd5b6001600160e01b03198116811461190657600080fdfea2646970667358221220e9455d4431c4c163c5d0dd2ab9e5343c634fd3b72a4c47e3a35878ce995775e764736f6c63430008040033",
  "immutableReferences": {
    "73": [
      {
        "length": 32,
        "start": 2912
      },
      {
        "length": 32,
        "start": 3084
      },
      {
        "length": 32,
        "start": 4800
      },
      {
        "length": 32,
        "start": 5137
      },
      {
        "length": 32,
        "start": 7615
      }
    ],
    "75": [
      {
        "length": 32,
        "start": 4035
      },
      {
        "length": 32,
        "start": 7662
      }
    ]
  },
  "source": "// SPDX-License-Identifier: GPL-3.0\n\n// Amended by HashLips\n/**\n    !Disclaimer!\n    These contracts have been used to create tutorials,\n    and was created for the purpose to teach people\n    how to create smart contracts on the blockchain.\n    please review this code on your own before using any of\n    the following code for production.\n    HashLips will not be liable in any way if for the use\n    of the code. That being said, the code has been tested\n    to the best of the developers' knowledge to work as intended.\n*/\npragma solidity >=0.7.0 <0.9.0;\n\nimport \"@openzeppelin/contracts/token/ERC721/extensions/ERC721Enumerable.sol\";\nimport \"@openzeppelin/contracts/access/Ownable.sol\";\nimport \"@chainlink/contracts/src/v0.8/VRFConsumerBase.sol\";\n\ncontract ARKS369 is ERC721Enumerable, Ownable, VRFConsumerBase {\n  using Strings for uint256;\n\n  string baseURI;\n  string public baseExtension = \".json\";\n\n  // uint256 public cost = 169 ether;\n  // uint256 public maxSupply = 9963;\n  uint256 public cost = 1 ether;\n  uint256 public maxSupply = 36;\n\n  uint256 public maxMintAmount = 6;\n  uint256 public headStart = block.timestamp + 9 days;\n  bool public paused = false;\n\n \n  uint256 permillGiftMintONG = 13;\n  uint256 percGiftMint = 6;\n  uint256 percGiftEnd = 3;\n  uint256 nbEndReward = 3;\n  \n  address payable giftAddressONG = payable(0xe86b5d5562bF50415A7455163525184f490b965f);\n  mapping( bytes32 => uint256) public requestIdToSupply;\n  mapping( bytes32 => uint256) public requestIdToGiftValue;\n\n  mapping( address => uint256) public addressToCounter;\n  uint256 public maxTokenPerAddress = 6;\n\n  bytes32 internal keyHash;\n  uint256 internal fee;\n  uint256 public randomResult = 1;\n\n\n  \n  constructor(\n    string memory _name,\n    string memory _symbol,\n    string memory _initBaseURI\n  ) VRFConsumerBase(\n      0x8C7382F9D8f56b33781fE506E897a4F1e2d17255,\n      0x326C977E6efc84E512bB9C30f76E30c160eD06FB\n    )\n    ERC721(_name, _symbol) {\n    setBaseURI(_initBaseURI);\n    keyHash = 0x6e75b569a01ef56d18cab6a8e71e6600d6ce853834d4a5748b720d06f878b3a4;\n    fee = 0.0001 * 10 ** 18; // 0.0001 LINK (Varies by network)\n  }\n\n  // internal\n  function fulfillRandomness(bytes32 requestId, uint256 randomness) internal override {\n    address payable giftAddress = payable(msg.sender);\n    uint256 supply = requestIdToSupply[requestId];\n    uint256 giftValue = requestIdToGiftValue[requestId];\n    \n    randomResult = (randomness % supply) + 1;\n    giftAddress = payable(ownerOf(randomResult));\n    (bool success, ) = payable(giftAddress).call{value: giftValue}(\"\");\n    require(success, \"Could not send final value!\");\n  }\n\n  function _baseURI() internal view virtual override returns (string memory) {\n    return baseURI;\n  }\n \n  // public\n\n  function mint(uint256 _mintAmount) public payable {\n    uint256 supply = totalSupply();\n    require(!paused, \"Contract is paused!\");\n    require(_mintAmount > 0);\n    require(_mintAmount <= maxMintAmount);\n    require(supply + _mintAmount <= maxSupply, \"Max supply reached!\");\n    require(msg.sender != owner(), \"Owner can not mint!\");\n    require(msg.value >= cost * _mintAmount, \"Not enough funds!\");\n    require(addressToCounter[msg.sender] + _mintAmount <= maxTokenPerAddress, \"Token limit reached by this address\");\n    \n    uint256 giftValue;\n    uint256 giftValueONG;\n   \n    for (uint256 i = 1; i <= _mintAmount; i++) {\n        _safeMint(msg.sender, supply + i);\n    }\n    \n    if (supply > 0) {\n        if (supply + _mintAmount == maxSupply) {\n\n            giftValue = address(this).balance * percGiftEnd / 100 / nbEndReward;\n            for (uint256 j = 1; j <= nbEndReward; j++ ) {\n                require(LINK.balanceOf(address(this)) >= fee, \"Not enough LINK\");\n                bytes32 requestId = requestRandomness(keyHash, fee);\n                requestIdToSupply[requestId] = totalSupply();\n                requestIdToGiftValue[requestId] = giftValue;\n            }\n        } else {\n    \n            giftValue = msg.value * percGiftMint / 100;\n            require(LINK.balanceOf(address(this)) >= fee, \"Not enough LINK\");\n            bytes32 requestId = requestRandomness(keyHash, fee);\n            requestIdToSupply[requestId] = totalSupply();\n            requestIdToGiftValue[requestId] = giftValue;\n            \n            giftValueONG = msg.value * permillGiftMintONG / 1000;\n            (bool successONG, ) = payable(giftAddressONG).call{value: giftValueONG}(\"\");\n            require(successONG, \"Could not send value to ONG!\");\n        }\n    }\n  \n  }\n\n  function walletOfOwner(address _owner)\n    public\n    view\n    returns (uint256[] memory)\n  {\n    uint256 ownerTokenCount = balanceOf(_owner);\n    uint256[] memory tokenIds = new uint256[](ownerTokenCount);\n    for (uint256 i; i < ownerTokenCount; i++) {\n      tokenIds[i] = tokenOfOwnerByIndex(_owner, i);\n    }\n    return tokenIds;\n  }\n \n  // function randomNum(uint256 _mod, uint256 _seed, uint256 _salt) public view returns(uint256) {\n  //     uint256 num = uint256(keccak256(abi.encodePacked(block.timestamp, msg.sender, _seed, _salt))) % _mod;\n  //     return num;\n  // }\n\n  function tokenURI(uint256 tokenId)\n    public\n    view\n    virtual\n    override\n    returns (string memory)\n  {\n    require(\n      _exists(tokenId),\n      \"ERC721Metadata: URI query for nonexistent token\"\n    );\n\n\n    string memory currentBaseURI = _baseURI();\n    return bytes(currentBaseURI).length > 0\n        ? string(abi.encodePacked(currentBaseURI, tokenId.toString(), baseExtension))\n        : \"\";\n  }\n\n  //only owner\n\n \n  function setCost(uint256 _newCost) public onlyOwner() {\n    cost = _newCost;\n  }\n\n\n  function setBaseURI(string memory _newBaseURI) public onlyOwner {\n    baseURI = _newBaseURI;\n  }\n\n  function setBaseExtension(string memory _newBaseExtension) public onlyOwner {\n    baseExtension = _newBaseExtension;\n  }\n\n  function pause(bool _state) public onlyOwner {\n    paused = _state;\n  }\n \n  function withdraw() public payable onlyOwner {\n    uint256 supply = totalSupply();\n    require(supply == maxSupply || block.timestamp >= headStart, \"Can not withdraw yet.\");\n    (bool s, ) = payable(msg.sender).call{value: address(this).balance}(\"\");\n    require(s);\n    uint assetBalance = LINK.balanceOf(address(this));\n    (bool succ) = LINK.transfer(msg.sender, assetBalance);\n    require(succ);\n  }\n}",
  "sourcePath": "/Users/lap/Documents/NFT/369/nft_minter/contracts/ARKS.sol",
  "compiler": {
    "name": "solc",
    "version": "0.8.4+commit.c7e474f2.Emscripten.clang"
  },
  "schemaVersion": "3.4.3",
  "updatedAt": "2021-10-22T08:01:51.188Z",
  "networkType": "ethereum",
  "devdoc": {
    "kind": "dev",
    "methods": {
      "approve(address,uint256)": {
        "details": "See {IERC721-approve}."
      },
      "balanceOf(address)": {
        "details": "See {IERC721-balanceOf}."
      },
      "getApproved(uint256)": {
        "details": "See {IERC721-getApproved}."
      },
      "isApprovedForAll(address,address)": {
        "details": "See {IERC721-isApprovedForAll}."
      },
      "name()": {
        "details": "See {IERC721Metadata-name}."
      },
      "owner()": {
        "details": "Returns the address of the current owner."
      },
      "ownerOf(uint256)": {
        "details": "See {IERC721-ownerOf}."
      },
      "renounceOwnership()": {
        "details": "Leaves the contract without owner. It will not be possible to call `onlyOwner` functions anymore. Can only be called by the current owner. NOTE: Renouncing ownership will leave the contract without an owner, thereby removing any functionality that is only available to the owner."
      },
      "safeTransferFrom(address,address,uint256)": {
        "details": "See {IERC721-safeTransferFrom}."
      },
      "safeTransferFrom(address,address,uint256,bytes)": {
        "details": "See {IERC721-safeTransferFrom}."
      },
      "setApprovalForAll(address,bool)": {
        "details": "See {IERC721-setApprovalForAll}."
      },
      "supportsInterface(bytes4)": {
        "details": "See {IERC165-supportsInterface}."
      },
      "symbol()": {
        "details": "See {IERC721Metadata-symbol}."
      },
      "tokenByIndex(uint256)": {
        "details": "See {IERC721Enumerable-tokenByIndex}."
      },
      "tokenOfOwnerByIndex(address,uint256)": {
        "details": "See {IERC721Enumerable-tokenOfOwnerByIndex}."
      },
      "tokenURI(uint256)": {
        "details": "See {IERC721Metadata-tokenURI}."
      },
      "totalSupply()": {
        "details": "See {IERC721Enumerable-totalSupply}."
      },
      "transferFrom(address,address,uint256)": {
        "details": "See {IERC721-transferFrom}."
      },
      "transferOwnership(address)": {
        "details": "Transfers ownership of the contract to a new account (`newOwner`). Can only be called by the current owner."
      }
    },
    "version": 1
  },
  "userdoc": {
    "kind": "user",
    "methods": {},
    "version": 1
  }
}