{
  "contractName": "LMEMO369",
  "abi": [
    {
      "inputs": [
        {
          "internalType": "string",
          "name": "_name",
          "type": "string"
        },
        {
          "internalType": "string",
          "name": "_symbol",
          "type": "string"
        },
        {
          "internalType": "string",
          "name": "_initBaseURI",
          "type": "string"
        }
      ],
      "stateMutability": "nonpayable",
      "type": "constructor"
    },
    {
      "anonymous": false,
      "inputs": [
        {
          "indexed": true,
          "internalType": "address",
          "name": "owner",
          "type": "address"
        },
        {
          "indexed": true,
          "internalType": "address",
          "name": "approved",
          "type": "address"
        },
        {
          "indexed": true,
          "internalType": "uint256",
          "name": "tokenId",
          "type": "uint256"
        }
      ],
      "name": "Approval",
      "type": "event"
    },
    {
      "anonymous": false,
      "inputs": [
        {
          "indexed": true,
          "internalType": "address",
          "name": "owner",
          "type": "address"
        },
        {
          "indexed": true,
          "internalType": "address",
          "name": "operator",
          "type": "address"
        },
        {
          "indexed": false,
          "internalType": "bool",
          "name": "approved",
          "type": "bool"
        }
      ],
      "name": "ApprovalForAll",
      "type": "event"
    },
    {
      "anonymous": false,
      "inputs": [
        {
          "indexed": true,
          "internalType": "address",
          "name": "previousOwner",
          "type": "address"
        },
        {
          "indexed": true,
          "internalType": "address",
          "name": "newOwner",
          "type": "address"
        }
      ],
      "name": "OwnershipTransferred",
      "type": "event"
    },
    {
      "anonymous": false,
      "inputs": [
        {
          "indexed": true,
          "internalType": "address",
          "name": "from",
          "type": "address"
        },
        {
          "indexed": true,
          "internalType": "address",
          "name": "to",
          "type": "address"
        },
        {
          "indexed": true,
          "internalType": "uint256",
          "name": "tokenId",
          "type": "uint256"
        }
      ],
      "name": "Transfer",
      "type": "event"
    },
    {
      "inputs": [
        {
          "internalType": "address",
          "name": "",
          "type": "address"
        }
      ],
      "name": "addressToCounter",
      "outputs": [
        {
          "internalType": "uint256",
          "name": "",
          "type": "uint256"
        }
      ],
      "stateMutability": "view",
      "type": "function",
      "constant": true
    },
    {
      "inputs": [
        {
          "internalType": "address",
          "name": "to",
          "type": "address"
        },
        {
          "internalType": "uint256",
          "name": "tokenId",
          "type": "uint256"
        }
      ],
      "name": "approve",
      "outputs": [],
      "stateMutability": "nonpayable",
      "type": "function"
    },
    {
      "inputs": [
        {
          "internalType": "address",
          "name": "owner",
          "type": "address"
        }
      ],
      "name": "balanceOf",
      "outputs": [
        {
          "internalType": "uint256",
          "name": "",
          "type": "uint256"
        }
      ],
      "stateMutability": "view",
      "type": "function",
      "constant": true
    },
    {
      "inputs": [],
      "name": "baseExtension",
      "outputs": [
        {
          "internalType": "string",
          "name": "",
          "type": "string"
        }
      ],
      "stateMutability": "view",
      "type": "function",
      "constant": true
    },
    {
      "inputs": [],
      "name": "cost",
      "outputs": [
        {
          "internalType": "uint256",
          "name": "",
          "type": "uint256"
        }
      ],
      "stateMutability": "view",
      "type": "function",
      "constant": true
    },
    {
      "inputs": [
        {
          "internalType": "uint256",
          "name": "tokenId",
          "type": "uint256"
        }
      ],
      "name": "getApproved",
      "outputs": [
        {
          "internalType": "address",
          "name": "",
          "type": "address"
        }
      ],
      "stateMutability": "view",
      "type": "function",
      "constant": true
    },
    {
      "inputs": [],
      "name": "headStart",
      "outputs": [
        {
          "internalType": "uint256",
          "name": "",
          "type": "uint256"
        }
      ],
      "stateMutability": "view",
      "type": "function",
      "constant": true
    },
    {
      "inputs": [
        {
          "internalType": "address",
          "name": "owner",
          "type": "address"
        },
        {
          "internalType": "address",
          "name": "operator",
          "type": "address"
        }
      ],
      "name": "isApprovedForAll",
      "outputs": [
        {
          "internalType": "bool",
          "name": "",
          "type": "bool"
        }
      ],
      "stateMutability": "view",
      "type": "function",
      "constant": true
    },
    {
      "inputs": [],
      "name": "maxMintAmount",
      "outputs": [
        {
          "internalType": "uint256",
          "name": "",
          "type": "uint256"
        }
      ],
      "stateMutability": "view",
      "type": "function",
      "constant": true
    },
    {
      "inputs": [],
      "name": "maxSupply",
      "outputs": [
        {
          "internalType": "uint256",
          "name": "",
          "type": "uint256"
        }
      ],
      "stateMutability": "view",
      "type": "function",
      "constant": true
    },
    {
      "inputs": [],
      "name": "maxTokenPerAddress",
      "outputs": [
        {
          "internalType": "uint256",
          "name": "",
          "type": "uint256"
        }
      ],
      "stateMutability": "view",
      "type": "function",
      "constant": true
    },
    {
      "inputs": [],
      "name": "name",
      "outputs": [
        {
          "internalType": "string",
          "name": "",
          "type": "string"
        }
      ],
      "stateMutability": "view",
      "type": "function",
      "constant": true
    },
    {
      "inputs": [],
      "name": "owner",
      "outputs": [
        {
          "internalType": "address",
          "name": "",
          "type": "address"
        }
      ],
      "stateMutability": "view",
      "type": "function",
      "constant": true
    },
    {
      "inputs": [
        {
          "internalType": "uint256",
          "name": "tokenId",
          "type": "uint256"
        }
      ],
      "name": "ownerOf",
      "outputs": [
        {
          "internalType": "address",
          "name": "",
          "type": "address"
        }
      ],
      "stateMutability": "view",
      "type": "function",
      "constant": true
    },
    {
      "inputs": [],
      "name": "paused",
      "outputs": [
        {
          "internalType": "bool",
          "name": "",
          "type": "bool"
        }
      ],
      "stateMutability": "view",
      "type": "function",
      "constant": true
    },
    {
      "inputs": [],
      "name": "randomResult",
      "outputs": [
        {
          "internalType": "uint256",
          "name": "",
          "type": "uint256"
        }
      ],
      "stateMutability": "view",
      "type": "function",
      "constant": true
    },
    {
      "inputs": [
        {
          "internalType": "bytes32",
          "name": "requestId",
          "type": "bytes32"
        },
        {
          "internalType": "uint256",
          "name": "randomness",
          "type": "uint256"
        }
      ],
      "name": "rawFulfillRandomness",
      "outputs": [],
      "stateMutability": "nonpayable",
      "type": "function"
    },
    {
      "inputs": [],
      "name": "renounceOwnership",
      "outputs": [],
      "stateMutability": "nonpayable",
      "type": "function"
    },
    {
      "inputs": [
        {
          "internalType": "bytes32",
          "name": "",
          "type": "bytes32"
        }
      ],
      "name": "requestIdToGiftValue",
      "outputs": [
        {
          "internalType": "uint256",
          "name": "",
          "type": "uint256"
        }
      ],
      "stateMutability": "view",
      "type": "function",
      "constant": true
    },
    {
      "inputs": [
        {
          "internalType": "bytes32",
          "name": "",
          "type": "bytes32"
        }
      ],
      "name": "requestIdToSupply",
      "outputs": [
        {
          "internalType": "uint256",
          "name": "",
          "type": "uint256"
        }
      ],
      "stateMutability": "view",
      "type": "function",
      "constant": true
    },
    {
      "inputs": [
        {
          "internalType": "address",
          "name": "from",
          "type": "address"
        },
        {
          "internalType": "address",
          "name": "to",
          "type": "address"
        },
        {
          "internalType": "uint256",
          "name": "tokenId",
          "type": "uint256"
        }
      ],
      "name": "safeTransferFrom",
      "outputs": [],
      "stateMutability": "nonpayable",
      "type": "function"
    },
    {
      "inputs": [
        {
          "internalType": "address",
          "name": "from",
          "type": "address"
        },
        {
          "internalType": "address",
          "name": "to",
          "type": "address"
        },
        {
          "internalType": "uint256",
          "name": "tokenId",
          "type": "uint256"
        },
        {
          "internalType": "bytes",
          "name": "_data",
          "type": "bytes"
        }
      ],
      "name": "safeTransferFrom",
      "outputs": [],
      "stateMutability": "nonpayable",
      "type": "function"
    },
    {
      "inputs": [
        {
          "internalType": "address",
          "name": "operator",
          "type": "address"
        },
        {
          "internalType": "bool",
          "name": "approved",
          "type": "bool"
        }
      ],
      "name": "setApprovalForAll",
      "outputs": [],
      "stateMutability": "nonpayable",
      "type": "function"
    },
    {
      "inputs": [
        {
          "internalType": "bytes4",
          "name": "interfaceId",
          "type": "bytes4"
        }
      ],
      "name": "supportsInterface",
      "outputs": [
        {
          "internalType": "bool",
          "name": "",
          "type": "bool"
        }
      ],
      "stateMutability": "view",
      "type": "function",
      "constant": true
    },
    {
      "inputs": [],
      "name": "symbol",
      "outputs": [
        {
          "internalType": "string",
          "name": "",
          "type": "string"
        }
      ],
      "stateMutability": "view",
      "type": "function",
      "constant": true
    },
    {
      "inputs": [
        {
          "internalType": "uint256",
          "name": "index",
          "type": "uint256"
        }
      ],
      "name": "tokenByIndex",
      "outputs": [
        {
          "internalType": "uint256",
          "name": "",
          "type": "uint256"
        }
      ],
      "stateMutability": "view",
      "type": "function",
      "constant": true
    },
    {
      "inputs": [
        {
          "internalType": "address",
          "name": "owner",
          "type": "address"
        },
        {
          "internalType": "uint256",
          "name": "index",
          "type": "uint256"
        }
      ],
      "name": "tokenOfOwnerByIndex",
      "outputs": [
        {
          "internalType": "uint256",
          "name": "",
          "type": "uint256"
        }
      ],
      "stateMutability": "view",
      "type": "function",
      "constant": true
    },
    {
      "inputs": [],
      "name": "totalSupply",
      "outputs": [
        {
          "internalType": "uint256",
          "name": "",
          "type": "uint256"
        }
      ],
      "stateMutability": "view",
      "type": "function",
      "constant": true
    },
    {
      "inputs": [
        {
          "internalType": "address",
          "name": "from",
          "type": "address"
        },
        {
          "internalType": "address",
          "name": "to",
          "type": "address"
        },
        {
          "internalType": "uint256",
          "name": "tokenId",
          "type": "uint256"
        }
      ],
      "name": "transferFrom",
      "outputs": [],
      "stateMutability": "nonpayable",
      "type": "function"
    },
    {
      "inputs": [
        {
          "internalType": "address",
          "name": "newOwner",
          "type": "address"
        }
      ],
      "name": "transferOwnership",
      "outputs": [],
      "stateMutability": "nonpayable",
      "type": "function"
    },
    {
      "inputs": [
        {
          "internalType": "uint256",
          "name": "_mintAmount",
          "type": "uint256"
        }
      ],
      "name": "mint",
      "outputs": [],
      "stateMutability": "payable",
      "type": "function",
      "payable": true
    },
    {
      "inputs": [
        {
          "internalType": "address",
          "name": "_owner",
          "type": "address"
        }
      ],
      "name": "walletOfOwner",
      "outputs": [
        {
          "internalType": "uint256[]",
          "name": "",
          "type": "uint256[]"
        }
      ],
      "stateMutability": "view",
      "type": "function",
      "constant": true
    },
    {
      "inputs": [
        {
          "internalType": "uint256",
          "name": "tokenId",
          "type": "uint256"
        }
      ],
      "name": "tokenURI",
      "outputs": [
        {
          "internalType": "string",
          "name": "",
          "type": "string"
        }
      ],
      "stateMutability": "view",
      "type": "function",
      "constant": true
    },
    {
      "inputs": [
        {
          "internalType": "uint256",
          "name": "_newCost",
          "type": "uint256"
        }
      ],
      "name": "setCost",
      "outputs": [],
      "stateMutability": "nonpayable",
      "type": "function"
    },
    {
      "inputs": [
        {
          "internalType": "string",
          "name": "_newBaseURI",
          "type": "string"
        }
      ],
      "name": "setBaseURI",
      "outputs": [],
      "stateMutability": "nonpayable",
      "type": "function"
    },
    {
      "inputs": [
        {
          "internalType": "string",
          "name": "_newBaseExtension",
          "type": "string"
        }
      ],
      "name": "setBaseExtension",
      "outputs": [],
      "stateMutability": "nonpayable",
      "type": "function"
    },
    {
      "inputs": [
        {
          "internalType": "bool",
          "name": "_state",
          "type": "bool"
        }
      ],
      "name": "pause",
      "outputs": [],
      "stateMutability": "nonpayable",
      "type": "function"
    },
    {
      "inputs": [],
      "name": "withdraw",
      "outputs": [],
      "stateMutability": "payable",
      "type": "function",
      "payable": true
    }
  ],
  "bytecode": "0x610100604052600560c081905264173539b7b760d91b60e09081526200002991600d919062000278565b50670cfd570a75c40000600e55610107600f5560036010556200005042620bdd806200045e565b6011556012805460ff19169055600d60135560066014819055600a60155560165560036017819055601855601980546001600160a01b03191673e86b5d5562bf50415a7455163525184f490b965f1790556001601f55348015620000b357600080fd5b506040516200337e3803806200337e833981016040819052620000d691620003d1565b73b3dccb4cf7a26f6cf6b120cf5a73875b7bbc655b7301be23585060835e02b77ef475b0cc51aa1e0709848481600090805190602001906200011a92919062000278565b5080516200013090600190602084019062000278565b5050506200014d62000147620001aa60201b60201c565b620001ae565b6001600160601b0319606092831b811660a052911b16608052620001718162000200565b50507f2ed0feb3e7fd2022120aa84fab1945545a9f2ffc9076fd6156fa96eaff4c1311601d555067016345785d8a0000601e55620004d6565b3390565b600a80546001600160a01b038381166001600160a01b0319831681179093556040519116919082907f8be0079c531659141344cd1fd0a4f28419497f9722a3daafe3b4186f6b6457e090600090a35050565b600a546001600160a01b031633146200025f5760405162461bcd60e51b815260206004820181905260248201527f4f776e61626c653a2063616c6c6572206973206e6f7420746865206f776e6572604482015260640160405180910390fd5b80516200027490600c90602084019062000278565b5050565b828054620002869062000483565b90600052602060002090601f016020900481019282620002aa5760008555620002f5565b82601f10620002c557805160ff1916838001178555620002f5565b82800160010185558215620002f5579182015b82811115620002f5578251825591602001919060010190620002d8565b506200030392915062000307565b5090565b5b8082111562000303576000815560010162000308565b600082601f8301126200032f578081fd5b81516001600160401b03808211156200034c576200034c620004c0565b604051601f8301601f19908116603f01168101908282118183101715620003775762000377620004c0565b8160405283815260209250868385880101111562000393578485fd5b8491505b83821015620003b6578582018301518183018401529082019062000397565b83821115620003c757848385830101525b9695505050505050565b600080600060608486031215620003e6578283fd5b83516001600160401b0380821115620003fd578485fd5b6200040b878388016200031e565b9450602086015191508082111562000421578384fd5b6200042f878388016200031e565b9350604086015191508082111562000445578283fd5b5062000454868287016200031e565b9150509250925092565b600082198211156200047e57634e487b7160e01b81526011600452602481fd5b500190565b600181811c908216806200049857607f821691505b60208210811415620004ba57634e487b7160e01b600052602260045260246000fd5b50919050565b634e487b7160e01b600052604160045260246000fd5b60805160601c60a05160601c612e59620005256000396000818161111c0152611ef9015260008181610c6801528181610d140152818161143e015281816115dc0152611eca0152612e596000f3fe6080604052600436106102255760003560e01c80635c975abb11610123578063a22cb465116100ab578063da3ef23f1161006f578063da3ef23f14610625578063e985e9c514610645578063ecf768e71461068e578063f2fde38b146106bb578063f55974ca146106db57600080fd5b8063a22cb4651461059a578063b88d4fde146105ba578063c6682862146105da578063c87b56dd146105ef578063d5abeb011461060f57600080fd5b8063715018a6116100f2578063715018a61461051f5780638da5cb5b1461053457806394985ddd1461055257806395d89b4114610572578063a0712d681461058757600080fd5b80635c975abb146104af5780635e4cac40146104c95780636352211e146104df57806370a08231146104ff57600080fd5b80632f745c59116101b1578063438b630011610175578063438b6300146103f557806344a0d68a146104225780634f6ccce71461044257806355f804b314610462578063592dbb901461048257600080fd5b80632f745c591461036a5780633ccfd60b1461038a5780633d8ec45a1461039257806342619f66146103bf57806342842e0e146103d557600080fd5b8063095ea7b3116101f8578063095ea7b3146102db57806313faede6146102fb57806318160ddd1461031f578063239c70ae1461033457806323b872dd1461034a57600080fd5b806301ffc9a71461022a57806302329a291461025f57806306fdde0314610281578063081812fc146102a3575b600080fd5b34801561023657600080fd5b5061024a6102453660046129a5565b6106f1565b60405190151581526020015b60405180910390f35b34801561026b57600080fd5b5061027f61027a366004612934565b61071c565b005b34801561028d57600080fd5b50610296610762565b6040516102569190612bda565b3480156102af57600080fd5b506102c36102be36600461296c565b6107f4565b6040516001600160a01b039091168152602001610256565b3480156102e757600080fd5b5061027f6102f636600461290b565b610889565b34801561030757600080fd5b50610311600e5481565b604051908152602001610256565b34801561032b57600080fd5b50600854610311565b34801561034057600080fd5b5061031160105481565b34801561035657600080fd5b5061027f610365366004612821565b61099f565b34801561037657600080fd5b5061031161038536600461290b565b6109d0565b61027f610a66565b34801561039e57600080fd5b506103116103ad36600461296c565b601a6020526000908152604090205481565b3480156103cb57600080fd5b50610311601f5481565b3480156103e157600080fd5b5061027f6103f0366004612821565b610df3565b34801561040157600080fd5b506104156104103660046127d5565b610e0e565b6040516102569190612b96565b34801561042e57600080fd5b5061027f61043d36600461296c565b610ecc565b34801561044e57600080fd5b5061031161045d36600461296c565b610efb565b34801561046e57600080fd5b5061027f61047d3660046129dd565b610f9c565b34801561048e57600080fd5b5061031161049d36600461296c565b601b6020526000908152604090205481565b3480156104bb57600080fd5b5060125461024a9060ff1681565b3480156104d557600080fd5b5061031160165481565b3480156104eb57600080fd5b506102c36104fa36600461296c565b610fdd565b34801561050b57600080fd5b5061031161051a3660046127d5565b611054565b34801561052b57600080fd5b5061027f6110db565b34801561054057600080fd5b50600a546001600160a01b03166102c3565b34801561055e57600080fd5b5061027f61056d366004612984565b611111565b34801561057e57600080fd5b50610296611193565b61027f61059536600461296c565b6111a2565b3480156105a657600080fd5b5061027f6105b53660046128d5565b6116d9565b3480156105c657600080fd5b5061027f6105d536600461285c565b61179e565b3480156105e657600080fd5b506102966117d0565b3480156105fb57600080fd5b5061029661060a36600461296c565b61185e565b34801561061b57600080fd5b50610311600f5481565b34801561063157600080fd5b5061027f6106403660046129dd565b61193c565b34801561065157600080fd5b5061024a6106603660046127ef565b6001600160a01b03918216600090815260056020908152604080832093909416825291909152205460ff1690565b34801561069a57600080fd5b506103116106a93660046127d5565b601c6020526000908152604090205481565b3480156106c757600080fd5b5061027f6106d63660046127d5565b611979565b3480156106e757600080fd5b5061031160115481565b60006001600160e01b0319821663780e9d6360e01b1480610716575061071682611a14565b92915050565b600a546001600160a01b0316331461074f5760405162461bcd60e51b815260040161074690612c3f565b60405180910390fd5b6012805460ff1916911515919091179055565b60606000805461077190612d53565b80601f016020809104026020016040519081016040528092919081815260200182805461079d90612d53565b80156107ea5780601f106107bf576101008083540402835291602001916107ea565b820191906000526020600020905b8154815290600101906020018083116107cd57829003601f168201915b5050505050905090565b6000818152600260205260408120546001600160a01b031661086d5760405162461bcd60e51b815260206004820152602c60248201527f4552433732313a20617070726f76656420717565727920666f72206e6f6e657860448201526b34b9ba32b73a103a37b5b2b760a11b6064820152608401610746565b506000908152600460205260409020546001600160a01b031690565b600061089482610fdd565b9050806001600160a01b0316836001600160a01b031614156109025760405162461bcd60e51b815260206004820152602160248201527f4552433732313a20617070726f76616c20746f2063757272656e74206f776e656044820152603960f91b6064820152608401610746565b336001600160a01b038216148061091e575061091e8133610660565b6109905760405162461bcd60e51b815260206004820152603860248201527f4552433732313a20617070726f76652063616c6c6572206973206e6f74206f7760448201527f6e6572206e6f7220617070726f76656420666f7220616c6c00000000000000006064820152608401610746565b61099a8383611a64565b505050565b6109a93382611ad2565b6109c55760405162461bcd60e51b815260040161074690612c74565b61099a838383611bc9565b60006109db83611054565b8210610a3d5760405162461bcd60e51b815260206004820152602b60248201527f455243373231456e756d657261626c653a206f776e657220696e646578206f7560448201526a74206f6620626f756e647360a81b6064820152608401610746565b506001600160a01b03919091166000908152600660209081526040808320938352929052205490565b600a546001600160a01b03163314610a905760405162461bcd60e51b815260040161074690612c3f565b6000610a9b60085490565b90506000600f54821480610ab157506011544210155b610af55760405162461bcd60e51b815260206004820152601560248201527421b0b7103737ba103bb4ba34323930bb903cb2ba1760591b6044820152606401610746565b6103e860135447610b069190612cf1565b610b109190612cdd565b6019546040519192506000916001600160a01b039091169083908381818185875af1925050503d8060008114610b62576040519150601f19603f3d011682016040523d82523d6000602084013e610b67565b606091505b5050905080610bb85760405162461bcd60e51b815260206004820152601c60248201527f436f756c64206e6f742073656e642076616c756520746f204f4e4721000000006044820152606401610746565b604051600090339047908381818185875af1925050503d8060008114610bfa576040519150601f19603f3d011682016040523d82523d6000602084013e610bff565b606091505b5050905080610c505760405162461bcd60e51b815260206004820152601e60248201527f436f756c64206e6f742073656e642076616c756520746f206f776e65722100006044820152606401610746565b6040516370a0823160e01b81523060048201526000907f00000000000000000000000000000000000000000000000000000000000000006001600160a01b0316906370a082319060240160206040518083038186803b158015610cb257600080fd5b505afa158015610cc6573d6000803e3d6000fd5b505050506040513d601f19601f82011682018060405250810190610cea9190612a23565b60405163a9059cbb60e01b8152336004820152602481018290529091506000906001600160a01b037f0000000000000000000000000000000000000000000000000000000000000000169063a9059cbb90604401602060405180830381600087803b158015610d5857600080fd5b505af1158015610d6c573d6000803e3d6000fd5b505050506040513d601f19601f82011682018060405250810190610d909190612950565b905080610deb5760405162461bcd60e51b815260206004820152602360248201527f436f756c64206e6f742073656e64204c494e4b2076616c756520746f206f776e60448201526265722160e81b6064820152608401610746565b505050505050565b61099a8383836040518060200160405280600081525061179e565b60606000610e1b83611054565b905060008167ffffffffffffffff811115610e4657634e487b7160e01b600052604160045260246000fd5b604051908082528060200260200182016040528015610e6f578160200160208202803683370190505b50905060005b82811015610ec457610e8785826109d0565b828281518110610ea757634e487b7160e01b600052603260045260246000fd5b602090810291909101015280610ebc81612d8e565b915050610e75565b509392505050565b600a546001600160a01b03163314610ef65760405162461bcd60e51b815260040161074690612c3f565b600e55565b6000610f0660085490565b8210610f695760405162461bcd60e51b815260206004820152602c60248201527f455243373231456e756d657261626c653a20676c6f62616c20696e646578206f60448201526b7574206f6620626f756e647360a01b6064820152608401610746565b60088281548110610f8a57634e487b7160e01b600052603260045260246000fd5b90600052602060002001549050919050565b600a546001600160a01b03163314610fc65760405162461bcd60e51b815260040161074690612c3f565b8051610fd990600c9060208401906126aa565b5050565b6000818152600260205260408120546001600160a01b0316806107165760405162461bcd60e51b815260206004820152602960248201527f4552433732313a206f776e657220717565727920666f72206e6f6e657869737460448201526832b73a103a37b5b2b760b91b6064820152608401610746565b60006001600160a01b0382166110bf5760405162461bcd60e51b815260206004820152602a60248201527f4552433732313a2062616c616e636520717565727920666f7220746865207a65604482015269726f206164647265737360b01b6064820152608401610746565b506001600160a01b031660009081526003602052604090205490565b600a546001600160a01b031633146111055760405162461bcd60e51b815260040161074690612c3f565b61110f6000611d74565b565b336001600160a01b037f000000000000000000000000000000000000000000000000000000000000000016146111895760405162461bcd60e51b815260206004820152601f60248201527f4f6e6c7920565246436f6f7264696e61746f722063616e2066756c66696c6c006044820152606401610746565b610fd98282611dc6565b60606001805461077190612d53565b60006111ad60085490565b60125490915060ff16156111f95760405162461bcd60e51b8152602060048201526013602482015272436f6e7472616374206973207061757365642160681b6044820152606401610746565b6000821161120657600080fd5b60105482111561121557600080fd5b600f546112228383612cc5565b11156112665760405162461bcd60e51b81526020600482015260136024820152724d617820737570706c7920726561636865642160681b6044820152606401610746565b600a546001600160a01b03163314156112b75760405162461bcd60e51b81526020600482015260136024820152724f776e65722063616e206e6f74206d696e742160681b6044820152606401610746565b81600e546112c59190612cf1565b3410156113085760405162461bcd60e51b81526020600482015260116024820152704e6f7420656e6f7567682066756e64732160781b6044820152606401610746565b601654336000908152601c6020526040902054611326908490612cc5565b11156113805760405162461bcd60e51b815260206004820152602360248201527f546f6b656e206c696d697420726561636865642062792074686973206164647260448201526265737360e81b6064820152608401610746565b600060015b8381116113d75761139f3361139a8386612cc5565b611eac565b336000908152601c602052604081208054600192906113bf908490612cc5565b909155508190506113cf81612d8e565b915050611385565b50811561099a57600f546113eb8484612cc5565b1415611551576018546064601754476114049190612cf1565b61140e9190612cdd565b6114189190612cdd565b905060015b601854811161154b57601e546040516370a0823160e01b81523060048201527f00000000000000000000000000000000000000000000000000000000000000006001600160a01b0316906370a082319060240160206040518083038186803b15801561148857600080fd5b505afa15801561149c573d6000803e3d6000fd5b505050506040513d601f19601f820116820180604052508101906114c09190612a23565b10156115005760405162461bcd60e51b815260206004820152600f60248201526e4e6f7420656e6f756768204c494e4b60881b6044820152606401610746565b6000611510601d54601e54611ec6565b905061151b60085490565b6000918252601a6020908152604080842092909255601b905290208290558061154381612d8e565b91505061141d565b50505050565b60015b8381116115bd576015546115688285612cc5565b6115729190612da9565b6115ab576064601454853460155461158a9190612cf1565b6115949190612cdd565b61159e9190612cf1565b6115a89190612cdd565b91505b806115b581612d8e565b915050611554565b50801561099a57601e546040516370a0823160e01b81523060048201527f00000000000000000000000000000000000000000000000000000000000000006001600160a01b0316906370a082319060240160206040518083038186803b15801561162657600080fd5b505afa15801561163a573d6000803e3d6000fd5b505050506040513d601f19601f8201168201806040525081019061165e9190612a23565b101561169e5760405162461bcd60e51b815260206004820152600f60248201526e4e6f7420656e6f756768204c494e4b60881b6044820152606401610746565b60006116ae601d54601e54611ec6565b90506116b960085490565b6000918252601a6020908152604080842092909255601b90529020555050565b6001600160a01b0382163314156117325760405162461bcd60e51b815260206004820152601960248201527f4552433732313a20617070726f766520746f2063616c6c6572000000000000006044820152606401610746565b3360008181526005602090815260408083206001600160a01b03871680855290835292819020805460ff191686151590811790915590519081529192917f17307eab39ab6107e8899845ad3d59bd9653f200f220920489ca2b5937696c31910160405180910390a35050565b6117a83383611ad2565b6117c45760405162461bcd60e51b815260040161074690612c74565b61154b84848484612051565b600d80546117dd90612d53565b80601f016020809104026020016040519081016040528092919081815260200182805461180990612d53565b80156118565780601f1061182b57610100808354040283529160200191611856565b820191906000526020600020905b81548152906001019060200180831161183957829003601f168201915b505050505081565b6000818152600260205260409020546060906001600160a01b03166118dd5760405162461bcd60e51b815260206004820152602f60248201527f4552433732314d657461646174613a2055524920717565727920666f72206e6f60448201526e3732bc34b9ba32b73a103a37b5b2b760891b6064820152608401610746565b60006118e7612084565b905060008151116119075760405180602001604052806000815250611935565b8061191184612093565b600d60405160200161192593929190612a67565b6040516020818303038152906040525b9392505050565b600a546001600160a01b031633146119665760405162461bcd60e51b815260040161074690612c3f565b8051610fd990600d9060208401906126aa565b600a546001600160a01b031633146119a35760405162461bcd60e51b815260040161074690612c3f565b6001600160a01b038116611a085760405162461bcd60e51b815260206004820152602660248201527f4f776e61626c653a206e6577206f776e657220697320746865207a65726f206160448201526564647265737360d01b6064820152608401610746565b611a1181611d74565b50565b60006001600160e01b031982166380ac58cd60e01b1480611a4557506001600160e01b03198216635b5e139f60e01b145b8061071657506301ffc9a760e01b6001600160e01b0319831614610716565b600081815260046020526040902080546001600160a01b0319166001600160a01b0384169081179091558190611a9982610fdd565b6001600160a01b03167f8c5be1e5ebec7d5bd14f71427d1e84f3dd0314c0f7b2291e5b200ac8c7c3b92560405160405180910390a45050565b6000818152600260205260408120546001600160a01b0316611b4b5760405162461bcd60e51b815260206004820152602c60248201527f4552433732313a206f70657261746f7220717565727920666f72206e6f6e657860448201526b34b9ba32b73a103a37b5b2b760a11b6064820152608401610746565b6000611b5683610fdd565b9050806001600160a01b0316846001600160a01b03161480611b915750836001600160a01b0316611b86846107f4565b6001600160a01b0316145b80611bc157506001600160a01b0380821660009081526005602090815260408083209388168352929052205460ff165b949350505050565b826001600160a01b0316611bdc82610fdd565b6001600160a01b031614611c445760405162461bcd60e51b815260206004820152602960248201527f4552433732313a207472616e73666572206f6620746f6b656e2074686174206960448201526839903737ba1037bbb760b91b6064820152608401610746565b6001600160a01b038216611ca65760405162461bcd60e51b8152602060048201526024808201527f4552433732313a207472616e7366657220746f20746865207a65726f206164646044820152637265737360e01b6064820152608401610746565b611cb18383836121ad565b611cbc600082611a64565b6001600160a01b0383166000908152600360205260408120805460019290611ce5908490612d10565b90915550506001600160a01b0382166000908152600360205260408120805460019290611d13908490612cc5565b909155505060008181526002602052604080822080546001600160a01b0319166001600160a01b0386811691821790925591518493918716917fddf252ad1be2c89b69c2b068fc378daa952ba7f163c4a11628f55a4df523b3ef91a4505050565b600a80546001600160a01b038381166001600160a01b0319831681179093556040519116919082907f8be0079c531659141344cd1fd0a4f28419497f9722a3daafe3b4186f6b6457e090600090a35050565b6000828152601a6020908152604080832054601b90925290912054339190611dee8285612da9565b611df9906001612cc5565b601f819055611e0790610fdd565b92506000836001600160a01b03168260405160006040518083038185875af1925050503d8060008114611e56576040519150601f19603f3d011682016040523d82523d6000602084013e611e5b565b606091505b5050905080610deb5760405162461bcd60e51b815260206004820152601b60248201527f436f756c64206e6f742073656e642066696e616c2076616c75652100000000006044820152606401610746565b610fd9828260405180602001604052806000815250612265565b60007f00000000000000000000000000000000000000000000000000000000000000006001600160a01b0316634000aea07f000000000000000000000000000000000000000000000000000000000000000084866000604051602001611f36929190918252602082015260400190565b6040516020818303038152906040526040518463ffffffff1660e01b8152600401611f6393929190612b66565b602060405180830381600087803b158015611f7d57600080fd5b505af1158015611f91573d6000803e3d6000fd5b505050506040513d601f19601f82011682018060405250810190611fb59190612950565b506000838152600b6020818152604080842054815180840189905280830186905230606082015260808082018390528351808303909101815260a090910190925281519183019190912093879052919052612011906001612cc5565b6000858152600b6020526040902055611bc18482604080516020808201949094528082019290925280518083038201815260609092019052805191012090565b61205c848484611bc9565b61206884848484612298565b61154b5760405162461bcd60e51b815260040161074690612bed565b6060600c805461077190612d53565b6060816120b75750506040805180820190915260018152600360fc1b602082015290565b8160005b81156120e157806120cb81612d8e565b91506120da9050600a83612cdd565b91506120bb565b60008167ffffffffffffffff81111561210a57634e487b7160e01b600052604160045260246000fd5b6040519080825280601f01601f191660200182016040528015612134576020820181803683370190505b5090505b8415611bc157612149600183612d10565b9150612156600a86612da9565b612161906030612cc5565b60f81b81838151811061218457634e487b7160e01b600052603260045260246000fd5b60200101906001600160f81b031916908160001a9053506121a6600a86612cdd565b9450612138565b6001600160a01b0383166122085761220381600880546000838152600960205260408120829055600182018355919091527ff3f7a9fe364faab93b216da50a3214154f22a0a2b415b23a84c8169e8b636ee30155565b61222b565b816001600160a01b0316836001600160a01b03161461222b5761222b83826123a2565b6001600160a01b0382166122425761099a8161243f565b826001600160a01b0316826001600160a01b03161461099a5761099a8282612518565b61226f838361255c565b61227c6000848484612298565b61099a5760405162461bcd60e51b815260040161074690612bed565b60006001600160a01b0384163b1561239a57604051630a85bd0160e11b81526001600160a01b0385169063150b7a02906122dc903390899088908890600401612b29565b602060405180830381600087803b1580156122f657600080fd5b505af1925050508015612326575060408051601f3d908101601f19168201909252612323918101906129c1565b60015b612380573d808015612354576040519150601f19603f3d011682016040523d82523d6000602084013e612359565b606091505b5080516123785760405162461bcd60e51b815260040161074690612bed565b805181602001fd5b6001600160e01b031916630a85bd0160e11b149050611bc1565b506001611bc1565b600060016123af84611054565b6123b99190612d10565b60008381526007602052604090205490915080821461240c576001600160a01b03841660009081526006602090815260408083208584528252808320548484528184208190558352600790915290208190555b5060009182526007602090815260408084208490556001600160a01b039094168352600681528383209183525290812055565b60085460009061245190600190612d10565b6000838152600960205260408120546008805493945090928490811061248757634e487b7160e01b600052603260045260246000fd5b9060005260206000200154905080600883815481106124b657634e487b7160e01b600052603260045260246000fd5b60009182526020808320909101929092558281526009909152604080822084905585825281205560088054806124fc57634e487b7160e01b600052603160045260246000fd5b6001900381819060005260206000200160009055905550505050565b600061252383611054565b6001600160a01b039093166000908152600660209081526040808320868452825280832085905593825260079052919091209190915550565b6001600160a01b0382166125b25760405162461bcd60e51b815260206004820181905260248201527f4552433732313a206d696e7420746f20746865207a65726f20616464726573736044820152606401610746565b6000818152600260205260409020546001600160a01b0316156126175760405162461bcd60e51b815260206004820152601c60248201527f4552433732313a20746f6b656e20616c7265616479206d696e746564000000006044820152606401610746565b612623600083836121ad565b6001600160a01b038216600090815260036020526040812080546001929061264c908490612cc5565b909155505060008181526002602052604080822080546001600160a01b0319166001600160a01b03861690811790915590518392907fddf252ad1be2c89b69c2b068fc378daa952ba7f163c4a11628f55a4df523b3ef908290a45050565b8280546126b690612d53565b90600052602060002090601f0160209004810192826126d8576000855561271e565b82601f106126f157805160ff191683800117855561271e565b8280016001018555821561271e579182015b8281111561271e578251825591602001919060010190612703565b5061272a92915061272e565b5090565b5b8082111561272a576000815560010161272f565b600067ffffffffffffffff8084111561275e5761275e612de9565b604051601f8501601f19908116603f0116810190828211818310171561278657612786612de9565b8160405280935085815286868601111561279f57600080fd5b858560208301376000602087830101525050509392505050565b80356001600160a01b03811681146127d057600080fd5b919050565b6000602082840312156127e6578081fd5b611935826127b9565b60008060408385031215612801578081fd5b61280a836127b9565b9150612818602084016127b9565b90509250929050565b600080600060608486031215612835578081fd5b61283e846127b9565b925061284c602085016127b9565b9150604084013590509250925092565b60008060008060808587031215612871578081fd5b61287a856127b9565b9350612888602086016127b9565b925060408501359150606085013567ffffffffffffffff8111156128aa578182fd5b8501601f810187136128ba578182fd5b6128c987823560208401612743565b91505092959194509250565b600080604083850312156128e7578182fd5b6128f0836127b9565b9150602083013561290081612dff565b809150509250929050565b6000806040838503121561291d578182fd5b612926836127b9565b946020939093013593505050565b600060208284031215612945578081fd5b813561193581612dff565b600060208284031215612961578081fd5b815161193581612dff565b60006020828403121561297d578081fd5b5035919050565b60008060408385031215612996578182fd5b50508035926020909101359150565b6000602082840312156129b6578081fd5b813561193581612e0d565b6000602082840312156129d2578081fd5b815161193581612e0d565b6000602082840312156129ee578081fd5b813567ffffffffffffffff811115612a04578182fd5b8201601f81018413612a14578182fd5b611bc184823560208401612743565b600060208284031215612a34578081fd5b5051919050565b60008151808452612a53816020860160208601612d27565b601f01601f19169290920160200192915050565b600084516020612a7a8285838a01612d27565b855191840191612a8d8184848a01612d27565b85549201918390600181811c9080831680612aa957607f831692505b858310811415612ac757634e487b7160e01b88526022600452602488fd5b808015612adb5760018114612aec57612b18565b60ff19851688528388019550612b18565b60008b815260209020895b85811015612b105781548a820152908401908801612af7565b505083880195505b50939b9a5050505050505050505050565b6001600160a01b0385811682528416602082015260408101839052608060608201819052600090612b5c90830184612a3b565b9695505050505050565b60018060a01b0384168152826020820152606060408201526000612b8d6060830184612a3b565b95945050505050565b6020808252825182820181905260009190848201906040850190845b81811015612bce57835183529284019291840191600101612bb2565b50909695505050505050565b6020815260006119356020830184612a3b565b60208082526032908201527f4552433732313a207472616e7366657220746f206e6f6e20455243373231526560408201527131b2b4bb32b91034b6b83632b6b2b73a32b960711b606082015260800190565b6020808252818101527f4f776e61626c653a2063616c6c6572206973206e6f7420746865206f776e6572604082015260600190565b60208082526031908201527f4552433732313a207472616e736665722063616c6c6572206973206e6f74206f6040820152701ddb995c881b9bdc88185c1c1c9bdd9959607a1b606082015260800190565b60008219821115612cd857612cd8612dbd565b500190565b600082612cec57612cec612dd3565b500490565b6000816000190483118215151615612d0b57612d0b612dbd565b500290565b600082821015612d2257612d22612dbd565b500390565b60005b83811015612d42578181015183820152602001612d2a565b8381111561154b5750506000910152565b600181811c90821680612d6757607f821691505b60208210811415612d8857634e487b7160e01b600052602260045260246000fd5b50919050565b6000600019821415612da257612da2612dbd565b5060010190565b600082612db857612db8612dd3565b500690565b634e487b7160e01b600052601160045260246000fd5b634e487b7160e01b600052601260045260246000fd5b634e487b7160e01b600052604160045260246000fd5b8015158114611a1157600080fd5b6001600160e01b031981168114611a1157600080fdfea26469706673582212208412c3f7be9202569f1b8ddac91a7b596ab769ca037ece29ddfa3d3cfe4689e064736f6c63430008040033",
  "immutableReferences": {
    "73": [
      {
        "length": 32,
        "start": 3176
      },
      {
        "length": 32,
        "start": 3348
      },
      {
        "length": 32,
        "start": 5182
      },
      {
        "length": 32,
        "start": 5596
      },
      {
        "length": 32,
        "start": 7882
      }
    ],
    "75": [
      {
        "length": 32,
        "start": 4380
      },
      {
        "length": 32,
        "start": 7929
      }
    ]
  },
  "source": "// SPDX-License-Identifier: GPL-3.0\n\n// Amended by HashLips\n/**\n    !Disclaimer!\n    These contracts have been used to create tutorials,\n    and was created for the purpose to teach people\n    how to create smart contracts on the blockchain.\n    please review this code on your own before using any of\n    the following code for production.\n    HashLips will not be liable in any way if for the use\n    of the code. That being said, the code has been tested\n    to the best of the developers' knowledge to work as intended.\n*/\npragma solidity >=0.7.0 <0.9.0;\n\nimport \"@openzeppelin/contracts/token/ERC721/extensions/ERC721Enumerable.sol\";\nimport \"@openzeppelin/contracts/access/Ownable.sol\";\nimport \"@chainlink/contracts/src/v0.8/VRFConsumerBase.sol\";\n\ncontract LMEMO369 is ERC721Enumerable, Ownable, VRFConsumerBase {\n  using Strings for uint256;\n\n  string baseURI;\n  string public baseExtension = \".json\";\n\n  // uint256 public cost = 169 ether;\n  // uint256 public maxSupply = 9963;\n  uint256 public cost = 0.936 ether;\n  uint256 public maxSupply = 263;\n\n  uint256 public maxMintAmount = 3;\n  uint256 public headStart = block.timestamp + 9 days;\n  bool public paused = false;\n\n \n  uint256 permillGiftMintONG = 13;\n  uint256 percGiftMint = 6;\n  uint256 giftStep = 10;\n   uint256 public maxTokenPerAddress = 6;\n\n  uint256 percGiftEnd = 3;\n  uint256 nbEndReward = 3;\n  \n  address payable giftAddressONG = payable(0xe86b5d5562bF50415A7455163525184f490b965f);\n  mapping( bytes32 => uint256) public requestIdToSupply;\n  mapping( bytes32 => uint256) public requestIdToGiftValue;\n\n  mapping( address => uint256) public addressToCounter;\n \n\n  bytes32 internal keyHash;\n  uint256 internal fee;\n  uint256 public randomResult = 1;\n\n\n  \n  constructor(\n    string memory _name,\n    string memory _symbol,\n    string memory _initBaseURI\n  ) VRFConsumerBase(\n      0xb3dCcb4Cf7a26f6cf6B120Cf5A73875B7BBc655B,\n      0x01BE23585060835E02B77ef475b0Cc51aA1e0709\n    )\n    ERC721(_name, _symbol) {\n    setBaseURI(_initBaseURI);\n    keyHash = 0x2ed0feb3e7fd2022120aa84fab1945545a9f2ffc9076fd6156fa96eaff4c1311;\n    fee = 0.1 * 10 ** 18; // 0.1 LINK (Varies by network)\n  }\n\n  // internal\n  function fulfillRandomness(bytes32 requestId, uint256 randomness) internal override {\n    address payable giftAddress = payable(msg.sender);\n    uint256 supply = requestIdToSupply[requestId];\n    uint256 giftValue = requestIdToGiftValue[requestId];\n    \n    randomResult = (randomness % supply) + 1;\n    giftAddress = payable(ownerOf(randomResult));\n    (bool success, ) = payable(giftAddress).call{value: giftValue}(\"\");\n    require(success, \"Could not send final value!\");\n  }\n\n  function _baseURI() internal view virtual override returns (string memory) {\n    return baseURI;\n  }\n \n  // public\n\n  function mint(uint256 _mintAmount) public payable {\n    uint256 supply = totalSupply();\n    require(!paused, \"Contract is paused!\");\n    require(_mintAmount > 0);\n    require(_mintAmount <= maxMintAmount);\n    require(supply + _mintAmount <= maxSupply, \"Max supply reached!\");\n    require(msg.sender != owner(), \"Owner can not mint!\");\n    require(msg.value >= cost * _mintAmount, \"Not enough funds!\");\n    require(addressToCounter[msg.sender] + _mintAmount <= maxTokenPerAddress, \"Token limit reached by this address\");\n    \n    uint256 giftValue = 0;\n    \n   \n    for (uint256 i = 1; i <= _mintAmount; i++) {\n        _safeMint(msg.sender, supply + i);\n        addressToCounter[msg.sender] +=1;\n    }\n    \n    if (supply > 0) {\n        if (supply + _mintAmount == maxSupply) {\n\n            giftValue = address(this).balance * percGiftEnd / 100 / nbEndReward;\n            for (uint256 j = 1; j <= nbEndReward; j++ ) {\n                require(LINK.balanceOf(address(this)) >= fee, \"Not enough LINK\");\n                bytes32 requestId = requestRandomness(keyHash, fee);\n                requestIdToSupply[requestId] = totalSupply();\n                requestIdToGiftValue[requestId] = giftValue;\n            }\n        } else {\n            for (uint256 j = 1; j <= _mintAmount; j++) {\n                if ((supply + j) % giftStep == 0) {\n                    giftValue = giftStep * msg.value/_mintAmount * percGiftMint / 100;\n                } \n            }\n            if(giftValue>0) {\n                require(LINK.balanceOf(address(this)) >= fee, \"Not enough LINK\");\n                bytes32 requestId = requestRandomness(keyHash, fee);\n                requestIdToSupply[requestId] = totalSupply();\n                requestIdToGiftValue[requestId] = giftValue;\n            }\n            \n            \n        }\n    }\n  \n  }\n\n  function walletOfOwner(address _owner)\n    public\n    view\n    returns (uint256[] memory)\n  {\n    uint256 ownerTokenCount = balanceOf(_owner);\n    uint256[] memory tokenIds = new uint256[](ownerTokenCount);\n    for (uint256 i; i < ownerTokenCount; i++) {\n      tokenIds[i] = tokenOfOwnerByIndex(_owner, i);\n    }\n    return tokenIds;\n  }\n \n  // function randomNum(uint256 _mod, uint256 _seed, uint256 _salt) public view returns(uint256) {\n  //     uint256 num = uint256(keccak256(abi.encodePacked(block.timestamp, msg.sender, _seed, _salt))) % _mod;\n  //     return num;\n  // }\n\n  function tokenURI(uint256 tokenId)\n    public\n    view\n    virtual\n    override\n    returns (string memory)\n  {\n    require(\n      _exists(tokenId),\n      \"ERC721Metadata: URI query for nonexistent token\"\n    );\n\n\n    string memory currentBaseURI = _baseURI();\n    return bytes(currentBaseURI).length > 0\n        ? string(abi.encodePacked(currentBaseURI, tokenId.toString(), baseExtension))\n        : \"\";\n  }\n\n  //only owner\n\n \n  function setCost(uint256 _newCost) public onlyOwner() {\n    cost = _newCost;\n  }\n\n\n  function setBaseURI(string memory _newBaseURI) public onlyOwner {\n    baseURI = _newBaseURI;\n  }\n\n  function setBaseExtension(string memory _newBaseExtension) public onlyOwner {\n    baseExtension = _newBaseExtension;\n  }\n\n  function pause(bool _state) public onlyOwner {\n    paused = _state;\n  }\n \n  function withdraw() public payable onlyOwner {\n    uint256 supply = totalSupply();\n    uint256 giftValueONG;\n    \n    require(supply == maxSupply || block.timestamp >= headStart, \"Can not withdraw yet.\");\n    giftValueONG = address(this).balance * permillGiftMintONG / 1000;\n    (bool successONG, ) = payable(giftAddressONG).call{value: giftValueONG}(\"\");\n    require(successONG, \"Could not send value to ONG!\");\n    (bool s, ) = payable(msg.sender).call{value: address(this).balance}(\"\");\n    require(s, \"Could not send value to owner!\");\n    uint assetBalance = LINK.balanceOf(address(this));\n    (bool succ) = LINK.transfer(msg.sender, assetBalance);\n    require(succ, \"Could not send LINK value to owner!\");\n    \n  }\n}",
  "sourcePath": "/Users/lap/Documents/NFT/369/nft_minter/contracts/LMEMO369.sol",
  "compiler": {
    "name": "solc",
    "version": "0.8.4+commit.c7e474f2.Emscripten.clang"
  },
  "schemaVersion": "3.4.3",
  "updatedAt": "2021-11-12T11:49:41.290Z",
  "networkType": "ethereum",
  "devdoc": {
    "kind": "dev",
    "methods": {
      "approve(address,uint256)": {
        "details": "See {IERC721-approve}."
      },
      "balanceOf(address)": {
        "details": "See {IERC721-balanceOf}."
      },
      "getApproved(uint256)": {
        "details": "See {IERC721-getApproved}."
      },
      "isApprovedForAll(address,address)": {
        "details": "See {IERC721-isApprovedForAll}."
      },
      "name()": {
        "details": "See {IERC721Metadata-name}."
      },
      "owner()": {
        "details": "Returns the address of the current owner."
      },
      "ownerOf(uint256)": {
        "details": "See {IERC721-ownerOf}."
      },
      "renounceOwnership()": {
        "details": "Leaves the contract without owner. It will not be possible to call `onlyOwner` functions anymore. Can only be called by the current owner. NOTE: Renouncing ownership will leave the contract without an owner, thereby removing any functionality that is only available to the owner."
      },
      "safeTransferFrom(address,address,uint256)": {
        "details": "See {IERC721-safeTransferFrom}."
      },
      "safeTransferFrom(address,address,uint256,bytes)": {
        "details": "See {IERC721-safeTransferFrom}."
      },
      "setApprovalForAll(address,bool)": {
        "details": "See {IERC721-setApprovalForAll}."
      },
      "supportsInterface(bytes4)": {
        "details": "See {IERC165-supportsInterface}."
      },
      "symbol()": {
        "details": "See {IERC721Metadata-symbol}."
      },
      "tokenByIndex(uint256)": {
        "details": "See {IERC721Enumerable-tokenByIndex}."
      },
      "tokenOfOwnerByIndex(address,uint256)": {
        "details": "See {IERC721Enumerable-tokenOfOwnerByIndex}."
      },
      "tokenURI(uint256)": {
        "details": "See {IERC721Metadata-tokenURI}."
      },
      "totalSupply()": {
        "details": "See {IERC721Enumerable-totalSupply}."
      },
      "transferFrom(address,address,uint256)": {
        "details": "See {IERC721-transferFrom}."
      },
      "transferOwnership(address)": {
        "details": "Transfers ownership of the contract to a new account (`newOwner`). Can only be called by the current owner."
      }
    },
    "version": 1
  },
  "userdoc": {
    "kind": "user",
    "methods": {},
    "version": 1
  }
}