{
  "contractName": "LMEMO",
  "abi": [
    {
      "inputs": [
        {
          "internalType": "string",
          "name": "_name",
          "type": "string"
        },
        {
          "internalType": "string",
          "name": "_symbol",
          "type": "string"
        },
        {
          "internalType": "string",
          "name": "_initBaseURI",
          "type": "string"
        }
      ],
      "stateMutability": "nonpayable",
      "type": "constructor"
    },
    {
      "anonymous": false,
      "inputs": [
        {
          "indexed": true,
          "internalType": "address",
          "name": "owner",
          "type": "address"
        },
        {
          "indexed": true,
          "internalType": "address",
          "name": "approved",
          "type": "address"
        },
        {
          "indexed": true,
          "internalType": "uint256",
          "name": "tokenId",
          "type": "uint256"
        }
      ],
      "name": "Approval",
      "type": "event"
    },
    {
      "anonymous": false,
      "inputs": [
        {
          "indexed": true,
          "internalType": "address",
          "name": "owner",
          "type": "address"
        },
        {
          "indexed": true,
          "internalType": "address",
          "name": "operator",
          "type": "address"
        },
        {
          "indexed": false,
          "internalType": "bool",
          "name": "approved",
          "type": "bool"
        }
      ],
      "name": "ApprovalForAll",
      "type": "event"
    },
    {
      "anonymous": false,
      "inputs": [
        {
          "indexed": true,
          "internalType": "address",
          "name": "previousOwner",
          "type": "address"
        },
        {
          "indexed": true,
          "internalType": "address",
          "name": "newOwner",
          "type": "address"
        }
      ],
      "name": "OwnershipTransferred",
      "type": "event"
    },
    {
      "anonymous": false,
      "inputs": [
        {
          "indexed": true,
          "internalType": "address",
          "name": "from",
          "type": "address"
        },
        {
          "indexed": true,
          "internalType": "address",
          "name": "to",
          "type": "address"
        },
        {
          "indexed": true,
          "internalType": "uint256",
          "name": "tokenId",
          "type": "uint256"
        }
      ],
      "name": "Transfer",
      "type": "event"
    },
    {
      "inputs": [
        {
          "internalType": "address",
          "name": "to",
          "type": "address"
        },
        {
          "internalType": "uint256",
          "name": "tokenId",
          "type": "uint256"
        }
      ],
      "name": "approve",
      "outputs": [],
      "stateMutability": "nonpayable",
      "type": "function"
    },
    {
      "inputs": [
        {
          "internalType": "address",
          "name": "owner",
          "type": "address"
        }
      ],
      "name": "balanceOf",
      "outputs": [
        {
          "internalType": "uint256",
          "name": "",
          "type": "uint256"
        }
      ],
      "stateMutability": "view",
      "type": "function",
      "constant": true
    },
    {
      "inputs": [],
      "name": "baseExtension",
      "outputs": [
        {
          "internalType": "string",
          "name": "",
          "type": "string"
        }
      ],
      "stateMutability": "view",
      "type": "function",
      "constant": true
    },
    {
      "inputs": [],
      "name": "baseURI",
      "outputs": [
        {
          "internalType": "string",
          "name": "",
          "type": "string"
        }
      ],
      "stateMutability": "view",
      "type": "function",
      "constant": true
    },
    {
      "inputs": [],
      "name": "cost",
      "outputs": [
        {
          "internalType": "uint256",
          "name": "",
          "type": "uint256"
        }
      ],
      "stateMutability": "view",
      "type": "function",
      "constant": true
    },
    {
      "inputs": [
        {
          "internalType": "uint256",
          "name": "tokenId",
          "type": "uint256"
        }
      ],
      "name": "getApproved",
      "outputs": [
        {
          "internalType": "address",
          "name": "",
          "type": "address"
        }
      ],
      "stateMutability": "view",
      "type": "function",
      "constant": true
    },
    {
      "inputs": [
        {
          "internalType": "address",
          "name": "owner",
          "type": "address"
        },
        {
          "internalType": "address",
          "name": "operator",
          "type": "address"
        }
      ],
      "name": "isApprovedForAll",
      "outputs": [
        {
          "internalType": "bool",
          "name": "",
          "type": "bool"
        }
      ],
      "stateMutability": "view",
      "type": "function",
      "constant": true
    },
    {
      "inputs": [],
      "name": "maxMintAmount",
      "outputs": [
        {
          "internalType": "uint256",
          "name": "",
          "type": "uint256"
        }
      ],
      "stateMutability": "view",
      "type": "function",
      "constant": true
    },
    {
      "inputs": [],
      "name": "maxSupply",
      "outputs": [
        {
          "internalType": "uint256",
          "name": "",
          "type": "uint256"
        }
      ],
      "stateMutability": "view",
      "type": "function",
      "constant": true
    },
    {
      "inputs": [],
      "name": "name",
      "outputs": [
        {
          "internalType": "string",
          "name": "",
          "type": "string"
        }
      ],
      "stateMutability": "view",
      "type": "function",
      "constant": true
    },
    {
      "inputs": [],
      "name": "owner",
      "outputs": [
        {
          "internalType": "address",
          "name": "",
          "type": "address"
        }
      ],
      "stateMutability": "view",
      "type": "function",
      "constant": true
    },
    {
      "inputs": [
        {
          "internalType": "uint256",
          "name": "tokenId",
          "type": "uint256"
        }
      ],
      "name": "ownerOf",
      "outputs": [
        {
          "internalType": "address",
          "name": "",
          "type": "address"
        }
      ],
      "stateMutability": "view",
      "type": "function",
      "constant": true
    },
    {
      "inputs": [],
      "name": "paused",
      "outputs": [
        {
          "internalType": "bool",
          "name": "",
          "type": "bool"
        }
      ],
      "stateMutability": "view",
      "type": "function",
      "constant": true
    },
    {
      "inputs": [],
      "name": "renounceOwnership",
      "outputs": [],
      "stateMutability": "nonpayable",
      "type": "function"
    },
    {
      "inputs": [
        {
          "internalType": "address",
          "name": "from",
          "type": "address"
        },
        {
          "internalType": "address",
          "name": "to",
          "type": "address"
        },
        {
          "internalType": "uint256",
          "name": "tokenId",
          "type": "uint256"
        }
      ],
      "name": "safeTransferFrom",
      "outputs": [],
      "stateMutability": "nonpayable",
      "type": "function"
    },
    {
      "inputs": [
        {
          "internalType": "address",
          "name": "from",
          "type": "address"
        },
        {
          "internalType": "address",
          "name": "to",
          "type": "address"
        },
        {
          "internalType": "uint256",
          "name": "tokenId",
          "type": "uint256"
        },
        {
          "internalType": "bytes",
          "name": "_data",
          "type": "bytes"
        }
      ],
      "name": "safeTransferFrom",
      "outputs": [],
      "stateMutability": "nonpayable",
      "type": "function"
    },
    {
      "inputs": [
        {
          "internalType": "address",
          "name": "operator",
          "type": "address"
        },
        {
          "internalType": "bool",
          "name": "approved",
          "type": "bool"
        }
      ],
      "name": "setApprovalForAll",
      "outputs": [],
      "stateMutability": "nonpayable",
      "type": "function"
    },
    {
      "inputs": [
        {
          "internalType": "bytes4",
          "name": "interfaceId",
          "type": "bytes4"
        }
      ],
      "name": "supportsInterface",
      "outputs": [
        {
          "internalType": "bool",
          "name": "",
          "type": "bool"
        }
      ],
      "stateMutability": "view",
      "type": "function",
      "constant": true
    },
    {
      "inputs": [],
      "name": "symbol",
      "outputs": [
        {
          "internalType": "string",
          "name": "",
          "type": "string"
        }
      ],
      "stateMutability": "view",
      "type": "function",
      "constant": true
    },
    {
      "inputs": [
        {
          "internalType": "uint256",
          "name": "index",
          "type": "uint256"
        }
      ],
      "name": "tokenByIndex",
      "outputs": [
        {
          "internalType": "uint256",
          "name": "",
          "type": "uint256"
        }
      ],
      "stateMutability": "view",
      "type": "function",
      "constant": true
    },
    {
      "inputs": [
        {
          "internalType": "address",
          "name": "owner",
          "type": "address"
        },
        {
          "internalType": "uint256",
          "name": "index",
          "type": "uint256"
        }
      ],
      "name": "tokenOfOwnerByIndex",
      "outputs": [
        {
          "internalType": "uint256",
          "name": "",
          "type": "uint256"
        }
      ],
      "stateMutability": "view",
      "type": "function",
      "constant": true
    },
    {
      "inputs": [],
      "name": "totalSupply",
      "outputs": [
        {
          "internalType": "uint256",
          "name": "",
          "type": "uint256"
        }
      ],
      "stateMutability": "view",
      "type": "function",
      "constant": true
    },
    {
      "inputs": [
        {
          "internalType": "address",
          "name": "from",
          "type": "address"
        },
        {
          "internalType": "address",
          "name": "to",
          "type": "address"
        },
        {
          "internalType": "uint256",
          "name": "tokenId",
          "type": "uint256"
        }
      ],
      "name": "transferFrom",
      "outputs": [],
      "stateMutability": "nonpayable",
      "type": "function"
    },
    {
      "inputs": [
        {
          "internalType": "address",
          "name": "newOwner",
          "type": "address"
        }
      ],
      "name": "transferOwnership",
      "outputs": [],
      "stateMutability": "nonpayable",
      "type": "function"
    },
    {
      "inputs": [
        {
          "internalType": "address",
          "name": "",
          "type": "address"
        }
      ],
      "name": "whitelisted",
      "outputs": [
        {
          "internalType": "bool",
          "name": "",
          "type": "bool"
        }
      ],
      "stateMutability": "view",
      "type": "function",
      "constant": true
    },
    {
      "inputs": [
        {
          "internalType": "address",
          "name": "_to",
          "type": "address"
        },
        {
          "internalType": "uint256",
          "name": "_mintAmount",
          "type": "uint256"
        }
      ],
      "name": "mint",
      "outputs": [],
      "stateMutability": "payable",
      "type": "function",
      "payable": true
    },
    {
      "inputs": [
        {
          "internalType": "address",
          "name": "_owner",
          "type": "address"
        }
      ],
      "name": "walletOfOwner",
      "outputs": [
        {
          "internalType": "uint256[]",
          "name": "",
          "type": "uint256[]"
        }
      ],
      "stateMutability": "view",
      "type": "function",
      "constant": true
    },
    {
      "inputs": [
        {
          "internalType": "uint256",
          "name": "tokenId",
          "type": "uint256"
        }
      ],
      "name": "tokenURI",
      "outputs": [
        {
          "internalType": "string",
          "name": "",
          "type": "string"
        }
      ],
      "stateMutability": "view",
      "type": "function",
      "constant": true
    },
    {
      "inputs": [
        {
          "internalType": "uint256",
          "name": "_newCost",
          "type": "uint256"
        }
      ],
      "name": "setCost",
      "outputs": [],
      "stateMutability": "nonpayable",
      "type": "function"
    },
    {
      "inputs": [
        {
          "internalType": "uint256",
          "name": "_newmaxMintAmount",
          "type": "uint256"
        }
      ],
      "name": "setmaxMintAmount",
      "outputs": [],
      "stateMutability": "nonpayable",
      "type": "function"
    },
    {
      "inputs": [
        {
          "internalType": "string",
          "name": "_newBaseURI",
          "type": "string"
        }
      ],
      "name": "setBaseURI",
      "outputs": [],
      "stateMutability": "nonpayable",
      "type": "function"
    },
    {
      "inputs": [
        {
          "internalType": "string",
          "name": "_newBaseExtension",
          "type": "string"
        }
      ],
      "name": "setBaseExtension",
      "outputs": [],
      "stateMutability": "nonpayable",
      "type": "function"
    },
    {
      "inputs": [
        {
          "internalType": "bool",
          "name": "_state",
          "type": "bool"
        }
      ],
      "name": "pause",
      "outputs": [],
      "stateMutability": "nonpayable",
      "type": "function"
    },
    {
      "inputs": [
        {
          "internalType": "address",
          "name": "_user",
          "type": "address"
        }
      ],
      "name": "whitelistUser",
      "outputs": [],
      "stateMutability": "nonpayable",
      "type": "function"
    },
    {
      "inputs": [
        {
          "internalType": "address",
          "name": "_user",
          "type": "address"
        }
      ],
      "name": "removeWhitelistUser",
      "outputs": [],
      "stateMutability": "nonpayable",
      "type": "function"
    },
    {
      "inputs": [],
      "name": "withdraw",
      "outputs": [],
      "stateMutability": "payable",
      "type": "function",
      "payable": true
    }
  ],
  "bytecode": "0x60c06040526005608081905264173539b7b760d91b60a09081526200002891600c919062000938565b5066b1a2bc2ec50000600d5561010d600e556002600f556010805460ff191690553480156200005657600080fd5b50604051620030a0380380620030a0833981016040819052620000799162000a9e565b8251839083906200009290600090602085019062000938565b508051620000a890600190602084019062000938565b505050620000c5620000bf620000e660201b60201c565b620000ea565b620000d0816200013c565b620000dd336002620001b5565b50505062000c8e565b3390565b600a80546001600160a01b038381166001600160a01b0319831681179093556040519116919082907f8be0079c531659141344cd1fd0a4f28419497f9722a3daafe3b4186f6b6457e090600090a35050565b600a546001600160a01b031633146200019c5760405162461bcd60e51b815260206004820181905260248201527f4f776e61626c653a2063616c6c6572206973206e6f7420746865206f776e657260448201526064015b60405180910390fd5b8051620001b190600b90602084019062000938565b5050565b6000620001c160085490565b60105490915060ff1615620001d557600080fd5b60008211620001e357600080fd5b600f54821115620001f357600080fd5b600e5462000202838362000b81565b11156200020e57600080fd5b600a546001600160a01b031633146200025b573360009081526011602052604090205460ff1615156001146200025b5781600d546200024e919062000b9c565b3410156200025b57600080fd5b60015b82811162000292576200027d8462000277838562000b81565b62000298565b80620002898162000c44565b9150506200025e565b50505050565b620001b1828260405180602001604052806000815250620002ba60201b60201c565b620002c6838362000332565b620002d5600084848462000488565b6200032d5760405162461bcd60e51b815260206004820152603260248201526000805160206200308083398151915260448201527131b2b4bb32b91034b6b83632b6b2b73a32b960711b606482015260840162000193565b505050565b6001600160a01b0382166200038a5760405162461bcd60e51b815260206004820181905260248201527f4552433732313a206d696e7420746f20746865207a65726f2061646472657373604482015260640162000193565b6000818152600260205260409020546001600160a01b031615620003f15760405162461bcd60e51b815260206004820152601c60248201527f4552433732313a20746f6b656e20616c7265616479206d696e74656400000000604482015260640162000193565b620003ff60008383620005f1565b6001600160a01b03821660009081526003602052604081208054600192906200042a90849062000b81565b909155505060008181526002602052604080822080546001600160a01b0319166001600160a01b03861690811790915590518392907fddf252ad1be2c89b69c2b068fc378daa952ba7f163c4a11628f55a4df523b3ef908290a45050565b6000620004a9846001600160a01b0316620006cd60201b620012971760201c565b15620005e557604051630a85bd0160e11b81526001600160a01b0385169063150b7a0290620004e390339089908890889060040162000b2b565b602060405180830381600087803b158015620004fe57600080fd5b505af192505050801562000531575060408051601f3d908101601f191682019092526200052e9181019062000a6d565b60015b620005ca573d80801562000562576040519150601f19603f3d011682016040523d82523d6000602084013e62000567565b606091505b508051620005c25760405162461bcd60e51b815260206004820152603260248201526000805160206200308083398151915260448201527131b2b4bb32b91034b6b83632b6b2b73a32b960711b606482015260840162000193565b805181602001fd5b6001600160e01b031916630a85bd0160e11b149050620005e9565b5060015b949350505050565b620006098383836200032d60201b620009401760201c565b6001600160a01b03831662000667576200066181600880546000838152600960205260408120829055600182018355919091527ff3f7a9fe364faab93b216da50a3214154f22a0a2b415b23a84c8169e8b636ee30155565b6200068d565b816001600160a01b0316836001600160a01b0316146200068d576200068d8382620006d3565b6001600160a01b038216620006a7576200032d8162000780565b826001600160a01b0316826001600160a01b0316146200032d576200032d82826200085e565b3b151590565b60006001620006ed84620008af60201b62000ee51760201c565b620006f9919062000bbe565b6000838152600760205260409020549091508082146200074d576001600160a01b03841660009081526006602090815260408083208584528252808320548484528184208190558352600790915290208190555b5060009182526007602090815260408084208490556001600160a01b039094168352600681528383209183525290812055565b600854600090620007949060019062000bbe565b60008381526009602052604081205460088054939450909284908110620007cb57634e487b7160e01b600052603260045260246000fd5b906000526020600020015490508060088381548110620007fb57634e487b7160e01b600052603260045260246000fd5b60009182526020808320909101929092558281526009909152604080822084905585825281205560088054806200084257634e487b7160e01b600052603160045260246000fd5b6001900381819060005260206000200160009055905550505050565b60006200087683620008af60201b62000ee51760201c565b6001600160a01b039093166000908152600660209081526040808320868452825280832085905593825260079052919091209190915550565b60006001600160a01b0382166200091c5760405162461bcd60e51b815260206004820152602a60248201527f4552433732313a2062616c616e636520717565727920666f7220746865207a65604482015269726f206164647265737360b01b606482015260840162000193565b506001600160a01b031660009081526003602052604090205490565b828054620009469062000c07565b90600052602060002090601f0160209004810192826200096a5760008555620009b5565b82601f106200098557805160ff1916838001178555620009b5565b82800160010185558215620009b5579182015b82811115620009b557825182559160200191906001019062000998565b50620009c3929150620009c7565b5090565b5b80821115620009c35760008155600101620009c8565b600082601f830112620009ef578081fd5b81516001600160401b038082111562000a0c5762000a0c62000c78565b604051601f8301601f19908116603f0116810190828211818310171562000a375762000a3762000c78565b8160405283815286602085880101111562000a50578485fd5b62000a6384602083016020890162000bd8565b9695505050505050565b60006020828403121562000a7f578081fd5b81516001600160e01b03198116811462000a97578182fd5b9392505050565b60008060006060848603121562000ab3578182fd5b83516001600160401b038082111562000aca578384fd5b62000ad887838801620009de565b9450602086015191508082111562000aee578384fd5b62000afc87838801620009de565b9350604086015191508082111562000b12578283fd5b5062000b2186828701620009de565b9150509250925092565b600060018060a01b03808716835280861660208401525083604083015260806060830152825180608084015262000b6a8160a085016020870162000bd8565b601f01601f19169190910160a00195945050505050565b6000821982111562000b975762000b9762000c62565b500190565b600081600019048311821515161562000bb95762000bb962000c62565b500290565b60008282101562000bd35762000bd362000c62565b500390565b60005b8381101562000bf557818101518382015260200162000bdb565b83811115620002925750506000910152565b600181811c9082168062000c1c57607f821691505b6020821081141562000c3e57634e487b7160e01b600052602260045260246000fd5b50919050565b600060001982141562000c5b5762000c5b62000c62565b5060010190565b634e487b7160e01b600052601160045260246000fd5b634e487b7160e01b600052604160045260246000fd5b6123e28062000c9e6000396000f3fe60806040526004361061020f5760003560e01c806355f804b311610118578063a22cb465116100a0578063d5abeb011161006f578063d5abeb01146105c8578063d936547e146105de578063da3ef23f1461060e578063e985e9c51461062e578063f2fde38b1461067757600080fd5b8063a22cb46514610553578063b88d4fde14610573578063c668286214610593578063c87b56dd146105a857600080fd5b806370a08231116100e757806370a08231146104cb578063715018a6146104eb5780637f00c7a6146105005780638da5cb5b1461052057806395d89b411461053e57600080fd5b806355f804b31461045c5780635c975abb1461047c5780636352211e146104965780636c0360eb146104b657600080fd5b80632f745c591161019b57806342842e0e1161016a57806342842e0e146103af578063438b6300146103cf57806344a0d68a146103fc5780634a4c560d1461041c5780634f6ccce71461043c57600080fd5b80632f745c591461035457806330cc7ae0146103745780633ccfd60b1461039457806340c10f191461039c57600080fd5b8063095ea7b3116101e2578063095ea7b3146102c557806313faede6146102e557806318160ddd14610309578063239c70ae1461031e57806323b872dd1461033457600080fd5b806301ffc9a71461021457806302329a291461024957806306fdde031461026b578063081812fc1461028d575b600080fd5b34801561022057600080fd5b5061023461022f366004611f6c565b610697565b60405190151581526020015b60405180910390f35b34801561025557600080fd5b50610269610264366004611f52565b6106c2565b005b34801561027757600080fd5b50610280610708565b6040516102409190612171565b34801561029957600080fd5b506102ad6102a8366004611fea565b61079a565b6040516001600160a01b039091168152602001610240565b3480156102d157600080fd5b506102696102e0366004611f29565b61082f565b3480156102f157600080fd5b506102fb600d5481565b604051908152602001610240565b34801561031557600080fd5b506008546102fb565b34801561032a57600080fd5b506102fb600f5481565b34801561034057600080fd5b5061026961034f366004611e4c565b610945565b34801561036057600080fd5b506102fb61036f366004611f29565b610976565b34801561038057600080fd5b5061026961038f366004611e00565b610a0c565b610269610a57565b6102696103aa366004611f29565b610ad9565b3480156103bb57600080fd5b506102696103ca366004611e4c565b610ba8565b3480156103db57600080fd5b506103ef6103ea366004611e00565b610bc3565b604051610240919061212d565b34801561040857600080fd5b50610269610417366004611fea565b610c81565b34801561042857600080fd5b50610269610437366004611e00565b610cb0565b34801561044857600080fd5b506102fb610457366004611fea565b610cfe565b34801561046857600080fd5b50610269610477366004611fa4565b610d9f565b34801561048857600080fd5b506010546102349060ff1681565b3480156104a257600080fd5b506102ad6104b1366004611fea565b610de0565b3480156104c257600080fd5b50610280610e57565b3480156104d757600080fd5b506102fb6104e6366004611e00565b610ee5565b3480156104f757600080fd5b50610269610f6c565b34801561050c57600080fd5b5061026961051b366004611fea565b610fa2565b34801561052c57600080fd5b50600a546001600160a01b03166102ad565b34801561054a57600080fd5b50610280610fd1565b34801561055f57600080fd5b5061026961056e366004611f00565b610fe0565b34801561057f57600080fd5b5061026961058e366004611e87565b6110a5565b34801561059f57600080fd5b506102806110d7565b3480156105b457600080fd5b506102806105c3366004611fea565b6110e4565b3480156105d457600080fd5b506102fb600e5481565b3480156105ea57600080fd5b506102346105f9366004611e00565b60116020526000908152604090205460ff1681565b34801561061a57600080fd5b50610269610629366004611fa4565b6111c2565b34801561063a57600080fd5b50610234610649366004611e1a565b6001600160a01b03918216600090815260056020908152604080832093909416825291909152205460ff1690565b34801561068357600080fd5b50610269610692366004611e00565b6111ff565b60006001600160e01b0319821663780e9d6360e01b14806106bc57506106bc8261129d565b92915050565b600a546001600160a01b031633146106f55760405162461bcd60e51b81526004016106ec906121d6565b60405180910390fd5b6010805460ff1916911515919091179055565b606060008054610717906122ea565b80601f0160208091040260200160405190810160405280929190818152602001828054610743906122ea565b80156107905780601f1061076557610100808354040283529160200191610790565b820191906000526020600020905b81548152906001019060200180831161077357829003601f168201915b5050505050905090565b6000818152600260205260408120546001600160a01b03166108135760405162461bcd60e51b815260206004820152602c60248201527f4552433732313a20617070726f76656420717565727920666f72206e6f6e657860448201526b34b9ba32b73a103a37b5b2b760a11b60648201526084016106ec565b506000908152600460205260409020546001600160a01b031690565b600061083a82610de0565b9050806001600160a01b0316836001600160a01b031614156108a85760405162461bcd60e51b815260206004820152602160248201527f4552433732313a20617070726f76616c20746f2063757272656e74206f776e656044820152603960f91b60648201526084016106ec565b336001600160a01b03821614806108c457506108c48133610649565b6109365760405162461bcd60e51b815260206004820152603860248201527f4552433732313a20617070726f76652063616c6c6572206973206e6f74206f7760448201527f6e6572206e6f7220617070726f76656420666f7220616c6c000000000000000060648201526084016106ec565b61094083836112ed565b505050565b61094f338261135b565b61096b5760405162461bcd60e51b81526004016106ec9061220b565b610940838383611452565b600061098183610ee5565b82106109e35760405162461bcd60e51b815260206004820152602b60248201527f455243373231456e756d657261626c653a206f776e657220696e646578206f7560448201526a74206f6620626f756e647360a81b60648201526084016106ec565b506001600160a01b03919091166000908152600660209081526040808320938352929052205490565b600a546001600160a01b03163314610a365760405162461bcd60e51b81526004016106ec906121d6565b6001600160a01b03166000908152601160205260409020805460ff19169055565b600a546001600160a01b03163314610a815760405162461bcd60e51b81526004016106ec906121d6565b604051600090339047908381818185875af1925050503d8060008114610ac3576040519150601f19603f3d011682016040523d82523d6000602084013e610ac8565b606091505b5050905080610ad657600080fd5b50565b6000610ae460085490565b60105490915060ff1615610af757600080fd5b60008211610b0457600080fd5b600f54821115610b1357600080fd5b600e54610b20838361225c565b1115610b2b57600080fd5b600a546001600160a01b03163314610b73573360009081526011602052604090205460ff161515600114610b735781600d54610b679190612288565b341015610b7357600080fd5b60015b828111610ba257610b9084610b8b838561225c565b6115fd565b80610b9a81612325565b915050610b76565b50505050565b610940838383604051806020016040528060008152506110a5565b60606000610bd083610ee5565b905060008167ffffffffffffffff811115610bfb57634e487b7160e01b600052604160045260246000fd5b604051908082528060200260200182016040528015610c24578160200160208202803683370190505b50905060005b82811015610c7957610c3c8582610976565b828281518110610c5c57634e487b7160e01b600052603260045260246000fd5b602090810291909101015280610c7181612325565b915050610c2a565b509392505050565b600a546001600160a01b03163314610cab5760405162461bcd60e51b81526004016106ec906121d6565b600d55565b600a546001600160a01b03163314610cda5760405162461bcd60e51b81526004016106ec906121d6565b6001600160a01b03166000908152601160205260409020805460ff19166001179055565b6000610d0960085490565b8210610d6c5760405162461bcd60e51b815260206004820152602c60248201527f455243373231456e756d657261626c653a20676c6f62616c20696e646578206f60448201526b7574206f6620626f756e647360a01b60648201526084016106ec565b60088281548110610d8d57634e487b7160e01b600052603260045260246000fd5b90600052602060002001549050919050565b600a546001600160a01b03163314610dc95760405162461bcd60e51b81526004016106ec906121d6565b8051610ddc90600b906020840190611cc5565b5050565b6000818152600260205260408120546001600160a01b0316806106bc5760405162461bcd60e51b815260206004820152602960248201527f4552433732313a206f776e657220717565727920666f72206e6f6e657869737460448201526832b73a103a37b5b2b760b91b60648201526084016106ec565b600b8054610e64906122ea565b80601f0160208091040260200160405190810160405280929190818152602001828054610e90906122ea565b8015610edd5780601f10610eb257610100808354040283529160200191610edd565b820191906000526020600020905b815481529060010190602001808311610ec057829003601f168201915b505050505081565b60006001600160a01b038216610f505760405162461bcd60e51b815260206004820152602a60248201527f4552433732313a2062616c616e636520717565727920666f7220746865207a65604482015269726f206164647265737360b01b60648201526084016106ec565b506001600160a01b031660009081526003602052604090205490565b600a546001600160a01b03163314610f965760405162461bcd60e51b81526004016106ec906121d6565b610fa06000611617565b565b600a546001600160a01b03163314610fcc5760405162461bcd60e51b81526004016106ec906121d6565b600f55565b606060018054610717906122ea565b6001600160a01b0382163314156110395760405162461bcd60e51b815260206004820152601960248201527f4552433732313a20617070726f766520746f2063616c6c65720000000000000060448201526064016106ec565b3360008181526005602090815260408083206001600160a01b03871680855290835292819020805460ff191686151590811790915590519081529192917f17307eab39ab6107e8899845ad3d59bd9653f200f220920489ca2b5937696c31910160405180910390a35050565b6110af338361135b565b6110cb5760405162461bcd60e51b81526004016106ec9061220b565b610ba284848484611669565b600c8054610e64906122ea565b6000818152600260205260409020546060906001600160a01b03166111635760405162461bcd60e51b815260206004820152602f60248201527f4552433732314d657461646174613a2055524920717565727920666f72206e6f60448201526e3732bc34b9ba32b73a103a37b5b2b760891b60648201526084016106ec565b600061116d61169c565b9050600081511161118d57604051806020016040528060008152506111bb565b80611197846116ab565b600c6040516020016111ab9392919061202e565b6040516020818303038152906040525b9392505050565b600a546001600160a01b031633146111ec5760405162461bcd60e51b81526004016106ec906121d6565b8051610ddc90600c906020840190611cc5565b600a546001600160a01b031633146112295760405162461bcd60e51b81526004016106ec906121d6565b6001600160a01b03811661128e5760405162461bcd60e51b815260206004820152602660248201527f4f776e61626c653a206e6577206f776e657220697320746865207a65726f206160448201526564647265737360d01b60648201526084016106ec565b610ad681611617565b3b151590565b60006001600160e01b031982166380ac58cd60e01b14806112ce57506001600160e01b03198216635b5e139f60e01b145b806106bc57506301ffc9a760e01b6001600160e01b03198316146106bc565b600081815260046020526040902080546001600160a01b0319166001600160a01b038416908117909155819061132282610de0565b6001600160a01b03167f8c5be1e5ebec7d5bd14f71427d1e84f3dd0314c0f7b2291e5b200ac8c7c3b92560405160405180910390a45050565b6000818152600260205260408120546001600160a01b03166113d45760405162461bcd60e51b815260206004820152602c60248201527f4552433732313a206f70657261746f7220717565727920666f72206e6f6e657860448201526b34b9ba32b73a103a37b5b2b760a11b60648201526084016106ec565b60006113df83610de0565b9050806001600160a01b0316846001600160a01b0316148061141a5750836001600160a01b031661140f8461079a565b6001600160a01b0316145b8061144a57506001600160a01b0380821660009081526005602090815260408083209388168352929052205460ff165b949350505050565b826001600160a01b031661146582610de0565b6001600160a01b0316146114cd5760405162461bcd60e51b815260206004820152602960248201527f4552433732313a207472616e73666572206f6620746f6b656e2074686174206960448201526839903737ba1037bbb760b91b60648201526084016106ec565b6001600160a01b03821661152f5760405162461bcd60e51b8152602060048201526024808201527f4552433732313a207472616e7366657220746f20746865207a65726f206164646044820152637265737360e01b60648201526084016106ec565b61153a8383836117c5565b6115456000826112ed565b6001600160a01b038316600090815260036020526040812080546001929061156e9084906122a7565b90915550506001600160a01b038216600090815260036020526040812080546001929061159c90849061225c565b909155505060008181526002602052604080822080546001600160a01b0319166001600160a01b0386811691821790925591518493918716917fddf252ad1be2c89b69c2b068fc378daa952ba7f163c4a11628f55a4df523b3ef91a4505050565b610ddc82826040518060200160405280600081525061187d565b600a80546001600160a01b038381166001600160a01b0319831681179093556040519116919082907f8be0079c531659141344cd1fd0a4f28419497f9722a3daafe3b4186f6b6457e090600090a35050565b611674848484611452565b611680848484846118b0565b610ba25760405162461bcd60e51b81526004016106ec90612184565b6060600b8054610717906122ea565b6060816116cf5750506040805180820190915260018152600360fc1b602082015290565b8160005b81156116f957806116e381612325565b91506116f29050600a83612274565b91506116d3565b60008167ffffffffffffffff81111561172257634e487b7160e01b600052604160045260246000fd5b6040519080825280601f01601f19166020018201604052801561174c576020820181803683370190505b5090505b841561144a576117616001836122a7565b915061176e600a86612340565b61177990603061225c565b60f81b81838151811061179c57634e487b7160e01b600052603260045260246000fd5b60200101906001600160f81b031916908160001a9053506117be600a86612274565b9450611750565b6001600160a01b0383166118205761181b81600880546000838152600960205260408120829055600182018355919091527ff3f7a9fe364faab93b216da50a3214154f22a0a2b415b23a84c8169e8b636ee30155565b611843565b816001600160a01b0316836001600160a01b0316146118435761184383826119bd565b6001600160a01b03821661185a5761094081611a5a565b826001600160a01b0316826001600160a01b031614610940576109408282611b33565b6118878383611b77565b61189460008484846118b0565b6109405760405162461bcd60e51b81526004016106ec90612184565b60006001600160a01b0384163b156119b257604051630a85bd0160e11b81526001600160a01b0385169063150b7a02906118f49033908990889088906004016120f0565b602060405180830381600087803b15801561190e57600080fd5b505af192505050801561193e575060408051601f3d908101601f1916820190925261193b91810190611f88565b60015b611998573d80801561196c576040519150601f19603f3d011682016040523d82523d6000602084013e611971565b606091505b5080516119905760405162461bcd60e51b81526004016106ec90612184565b805181602001fd5b6001600160e01b031916630a85bd0160e11b14905061144a565b506001949350505050565b600060016119ca84610ee5565b6119d491906122a7565b600083815260076020526040902054909150808214611a27576001600160a01b03841660009081526006602090815260408083208584528252808320548484528184208190558352600790915290208190555b5060009182526007602090815260408084208490556001600160a01b039094168352600681528383209183525290812055565b600854600090611a6c906001906122a7565b60008381526009602052604081205460088054939450909284908110611aa257634e487b7160e01b600052603260045260246000fd5b906000526020600020015490508060088381548110611ad157634e487b7160e01b600052603260045260246000fd5b6000918252602080832090910192909255828152600990915260408082208490558582528120556008805480611b1757634e487b7160e01b600052603160045260246000fd5b6001900381819060005260206000200160009055905550505050565b6000611b3e83610ee5565b6001600160a01b039093166000908152600660209081526040808320868452825280832085905593825260079052919091209190915550565b6001600160a01b038216611bcd5760405162461bcd60e51b815260206004820181905260248201527f4552433732313a206d696e7420746f20746865207a65726f206164647265737360448201526064016106ec565b6000818152600260205260409020546001600160a01b031615611c325760405162461bcd60e51b815260206004820152601c60248201527f4552433732313a20746f6b656e20616c7265616479206d696e7465640000000060448201526064016106ec565b611c3e600083836117c5565b6001600160a01b0382166000908152600360205260408120805460019290611c6790849061225c565b909155505060008181526002602052604080822080546001600160a01b0319166001600160a01b03861690811790915590518392907fddf252ad1be2c89b69c2b068fc378daa952ba7f163c4a11628f55a4df523b3ef908290a45050565b828054611cd1906122ea565b90600052602060002090601f016020900481019282611cf35760008555611d39565b82601f10611d0c57805160ff1916838001178555611d39565b82800160010185558215611d39579182015b82811115611d39578251825591602001919060010190611d1e565b50611d45929150611d49565b5090565b5b80821115611d455760008155600101611d4a565b600067ffffffffffffffff80841115611d7957611d79612380565b604051601f8501601f19908116603f01168101908282118183101715611da157611da1612380565b81604052809350858152868686011115611dba57600080fd5b858560208301376000602087830101525050509392505050565b80356001600160a01b0381168114611deb57600080fd5b919050565b80358015158114611deb57600080fd5b600060208284031215611e11578081fd5b6111bb82611dd4565b60008060408385031215611e2c578081fd5b611e3583611dd4565b9150611e4360208401611dd4565b90509250929050565b600080600060608486031215611e60578081fd5b611e6984611dd4565b9250611e7760208501611dd4565b9150604084013590509250925092565b60008060008060808587031215611e9c578081fd5b611ea585611dd4565b9350611eb360208601611dd4565b925060408501359150606085013567ffffffffffffffff811115611ed5578182fd5b8501601f81018713611ee5578182fd5b611ef487823560208401611d5e565b91505092959194509250565b60008060408385031215611f12578182fd5b611f1b83611dd4565b9150611e4360208401611df0565b60008060408385031215611f3b578182fd5b611f4483611dd4565b946020939093013593505050565b600060208284031215611f63578081fd5b6111bb82611df0565b600060208284031215611f7d578081fd5b81356111bb81612396565b600060208284031215611f99578081fd5b81516111bb81612396565b600060208284031215611fb5578081fd5b813567ffffffffffffffff811115611fcb578182fd5b8201601f81018413611fdb578182fd5b61144a84823560208401611d5e565b600060208284031215611ffb578081fd5b5035919050565b6000815180845261201a8160208601602086016122be565b601f01601f19169290920160200192915050565b6000845160206120418285838a016122be565b8551918401916120548184848a016122be565b85549201918390600181811c908083168061207057607f831692505b85831081141561208e57634e487b7160e01b88526022600452602488fd5b8080156120a257600181146120b3576120df565b60ff198516885283880195506120df565b60008b815260209020895b858110156120d75781548a8201529084019088016120be565b505083880195505b50939b9a5050505050505050505050565b6001600160a01b038581168252841660208201526040810183905260806060820181905260009061212390830184612002565b9695505050505050565b6020808252825182820181905260009190848201906040850190845b8181101561216557835183529284019291840191600101612149565b50909695505050505050565b6020815260006111bb6020830184612002565b60208082526032908201527f4552433732313a207472616e7366657220746f206e6f6e20455243373231526560408201527131b2b4bb32b91034b6b83632b6b2b73a32b960711b606082015260800190565b6020808252818101527f4f776e61626c653a2063616c6c6572206973206e6f7420746865206f776e6572604082015260600190565b60208082526031908201527f4552433732313a207472616e736665722063616c6c6572206973206e6f74206f6040820152701ddb995c881b9bdc88185c1c1c9bdd9959607a1b606082015260800190565b6000821982111561226f5761226f612354565b500190565b6000826122835761228361236a565b500490565b60008160001904831182151516156122a2576122a2612354565b500290565b6000828210156122b9576122b9612354565b500390565b60005b838110156122d95781810151838201526020016122c1565b83811115610ba25750506000910152565b600181811c908216806122fe57607f821691505b6020821081141561231f57634e487b7160e01b600052602260045260246000fd5b50919050565b600060001982141561233957612339612354565b5060010190565b60008261234f5761234f61236a565b500690565b634e487b7160e01b600052601160045260246000fd5b634e487b7160e01b600052601260045260246000fd5b634e487b7160e01b600052604160045260246000fd5b6001600160e01b031981168114610ad657600080fdfea2646970667358221220160693bd79fddc187e41133d3c80405bd43dd70bc9ad637d9c53c9d2c306a35e64736f6c634300080400334552433732313a207472616e7366657220746f206e6f6e204552433732315265",
  "immutableReferences": {},
  "source": "// SPDX-License-Identifier: GPL-3.0\n\n// Amended by HashLips\n/**\n    !Disclaimer!\n    These contracts have been used to create tutorials,\n    and was created for the purpose to teach people\n    how to create smart contracts on the blockchain.\n    please review this code on your own before using any of\n    the following code for production.\n    HashLips will not be liable in any way if for the use \n    of the code. That being said, the code has been tested \n    to the best of the developers' knowledge to work as intended.\n*/\n\npragma solidity >=0.7.0 <0.9.0;\n\nimport \"@openzeppelin/contracts/token/ERC721/extensions/ERC721Enumerable.sol\";\nimport \"@openzeppelin/contracts/access/Ownable.sol\";\n\ncontract LMEMO is ERC721Enumerable, Ownable {\n  using Strings for uint256;\n\n  string public baseURI;\n  string public baseExtension = \".json\";\n  uint256 public cost = 0.05 ether;\n  uint256 public maxSupply = 269;\n  uint256 public maxMintAmount = 2;\n  bool public paused = false;\n  mapping(address => bool) public whitelisted;\n\n  constructor(\n    string memory _name,\n    string memory _symbol,\n    string memory _initBaseURI\n  ) ERC721(_name, _symbol) {\n    setBaseURI(_initBaseURI);\n    mint(msg.sender, 2);\n  }\n\n  // internal\n  function _baseURI() internal view virtual override returns (string memory) {\n    return baseURI;\n  }\n\n  // public\n  function mint(address _to, uint256 _mintAmount) public payable {\n    uint256 supply = totalSupply();\n    require(!paused);\n    require(_mintAmount > 0);\n    require(_mintAmount <= maxMintAmount);\n    require(supply + _mintAmount <= maxSupply);\n\n    if (msg.sender != owner()) {\n        if(whitelisted[msg.sender] != true) {\n          require(msg.value >= cost * _mintAmount);\n        }\n    }\n\n    for (uint256 i = 1; i <= _mintAmount; i++) {\n      _safeMint(_to, supply + i);\n    }\n  }\n\n  function walletOfOwner(address _owner)\n    public\n    view\n    returns (uint256[] memory)\n  {\n    uint256 ownerTokenCount = balanceOf(_owner);\n    uint256[] memory tokenIds = new uint256[](ownerTokenCount);\n    for (uint256 i; i < ownerTokenCount; i++) {\n      tokenIds[i] = tokenOfOwnerByIndex(_owner, i);\n    }\n    return tokenIds;\n  }\n\n  function tokenURI(uint256 tokenId)\n    public\n    view\n    virtual\n    override\n    returns (string memory)\n  {\n    require(\n      _exists(tokenId),\n      \"ERC721Metadata: URI query for nonexistent token\"\n    );\n\n    string memory currentBaseURI = _baseURI();\n    return bytes(currentBaseURI).length > 0\n        ? string(abi.encodePacked(currentBaseURI, tokenId.toString(), baseExtension))\n        : \"\";\n  }\n\n  //only owner\n  function setCost(uint256 _newCost) public onlyOwner() {\n    cost = _newCost;\n  }\n\n  function setmaxMintAmount(uint256 _newmaxMintAmount) public onlyOwner() {\n    maxMintAmount = _newmaxMintAmount;\n  }\n\n  function setBaseURI(string memory _newBaseURI) public onlyOwner {\n    baseURI = _newBaseURI;\n  }\n\n  function setBaseExtension(string memory _newBaseExtension) public onlyOwner {\n    baseExtension = _newBaseExtension;\n  }\n\n  function pause(bool _state) public onlyOwner {\n    paused = _state;\n  }\n \n function whitelistUser(address _user) public onlyOwner {\n    whitelisted[_user] = true;\n  }\n \n  function removeWhitelistUser(address _user) public onlyOwner {\n    whitelisted[_user] = false;\n  }\n\n  function withdraw() public payable onlyOwner {\n    (bool success, ) = payable(msg.sender).call{value: address(this).balance}(\"\");\n    require(success);\n  }\n}",
  "sourcePath": "/Users/lap/Documents/NFT/369/nft_minter/contracts/LMEMO.sol",
  "compiler": {
    "name": "solc",
    "version": "0.8.4+commit.c7e474f2.Emscripten.clang"
  },
  "schemaVersion": "3.4.3",
  "updatedAt": "2021-10-08T08:55:31.538Z",
  "networkType": "ethereum",
  "devdoc": {
    "kind": "dev",
    "methods": {
      "approve(address,uint256)": {
        "details": "See {IERC721-approve}."
      },
      "balanceOf(address)": {
        "details": "See {IERC721-balanceOf}."
      },
      "getApproved(uint256)": {
        "details": "See {IERC721-getApproved}."
      },
      "isApprovedForAll(address,address)": {
        "details": "See {IERC721-isApprovedForAll}."
      },
      "name()": {
        "details": "See {IERC721Metadata-name}."
      },
      "owner()": {
        "details": "Returns the address of the current owner."
      },
      "ownerOf(uint256)": {
        "details": "See {IERC721-ownerOf}."
      },
      "renounceOwnership()": {
        "details": "Leaves the contract without owner. It will not be possible to call `onlyOwner` functions anymore. Can only be called by the current owner. NOTE: Renouncing ownership will leave the contract without an owner, thereby removing any functionality that is only available to the owner."
      },
      "safeTransferFrom(address,address,uint256)": {
        "details": "See {IERC721-safeTransferFrom}."
      },
      "safeTransferFrom(address,address,uint256,bytes)": {
        "details": "See {IERC721-safeTransferFrom}."
      },
      "setApprovalForAll(address,bool)": {
        "details": "See {IERC721-setApprovalForAll}."
      },
      "supportsInterface(bytes4)": {
        "details": "See {IERC165-supportsInterface}."
      },
      "symbol()": {
        "details": "See {IERC721Metadata-symbol}."
      },
      "tokenByIndex(uint256)": {
        "details": "See {IERC721Enumerable-tokenByIndex}."
      },
      "tokenOfOwnerByIndex(address,uint256)": {
        "details": "See {IERC721Enumerable-tokenOfOwnerByIndex}."
      },
      "tokenURI(uint256)": {
        "details": "See {IERC721Metadata-tokenURI}."
      },
      "totalSupply()": {
        "details": "See {IERC721Enumerable-totalSupply}."
      },
      "transferFrom(address,address,uint256)": {
        "details": "See {IERC721-transferFrom}."
      },
      "transferOwnership(address)": {
        "details": "Transfers ownership of the contract to a new account (`newOwner`). Can only be called by the current owner."
      }
    },
    "version": 1
  },
  "userdoc": {
    "kind": "user",
    "methods": {},
    "version": 1
  }
}