{
  "contractName": "LMEMO",
  "abi": [
    {
      "inputs": [
        {
          "internalType": "string",
          "name": "_name",
          "type": "string"
        },
        {
          "internalType": "string",
          "name": "_symbol",
          "type": "string"
        },
        {
          "internalType": "string",
          "name": "_initBaseURI",
          "type": "string"
        }
      ],
      "stateMutability": "nonpayable",
      "type": "constructor"
    },
    {
      "anonymous": false,
      "inputs": [
        {
          "indexed": true,
          "internalType": "address",
          "name": "owner",
          "type": "address"
        },
        {
          "indexed": true,
          "internalType": "address",
          "name": "approved",
          "type": "address"
        },
        {
          "indexed": true,
          "internalType": "uint256",
          "name": "tokenId",
          "type": "uint256"
        }
      ],
      "name": "Approval",
      "type": "event"
    },
    {
      "anonymous": false,
      "inputs": [
        {
          "indexed": true,
          "internalType": "address",
          "name": "owner",
          "type": "address"
        },
        {
          "indexed": true,
          "internalType": "address",
          "name": "operator",
          "type": "address"
        },
        {
          "indexed": false,
          "internalType": "bool",
          "name": "approved",
          "type": "bool"
        }
      ],
      "name": "ApprovalForAll",
      "type": "event"
    },
    {
      "anonymous": false,
      "inputs": [
        {
          "indexed": true,
          "internalType": "address",
          "name": "previousOwner",
          "type": "address"
        },
        {
          "indexed": true,
          "internalType": "address",
          "name": "newOwner",
          "type": "address"
        }
      ],
      "name": "OwnershipTransferred",
      "type": "event"
    },
    {
      "anonymous": false,
      "inputs": [
        {
          "indexed": true,
          "internalType": "address",
          "name": "from",
          "type": "address"
        },
        {
          "indexed": true,
          "internalType": "address",
          "name": "to",
          "type": "address"
        },
        {
          "indexed": true,
          "internalType": "uint256",
          "name": "tokenId",
          "type": "uint256"
        }
      ],
      "name": "Transfer",
      "type": "event"
    },
    {
      "inputs": [
        {
          "internalType": "address",
          "name": "to",
          "type": "address"
        },
        {
          "internalType": "uint256",
          "name": "tokenId",
          "type": "uint256"
        }
      ],
      "name": "approve",
      "outputs": [],
      "stateMutability": "nonpayable",
      "type": "function"
    },
    {
      "inputs": [
        {
          "internalType": "address",
          "name": "owner",
          "type": "address"
        }
      ],
      "name": "balanceOf",
      "outputs": [
        {
          "internalType": "uint256",
          "name": "",
          "type": "uint256"
        }
      ],
      "stateMutability": "view",
      "type": "function",
      "constant": true
    },
    {
      "inputs": [],
      "name": "baseExtension",
      "outputs": [
        {
          "internalType": "string",
          "name": "",
          "type": "string"
        }
      ],
      "stateMutability": "view",
      "type": "function",
      "constant": true
    },
    {
      "inputs": [],
      "name": "cost",
      "outputs": [
        {
          "internalType": "uint256",
          "name": "",
          "type": "uint256"
        }
      ],
      "stateMutability": "view",
      "type": "function",
      "constant": true
    },
    {
      "inputs": [
        {
          "internalType": "uint256",
          "name": "tokenId",
          "type": "uint256"
        }
      ],
      "name": "getApproved",
      "outputs": [
        {
          "internalType": "address",
          "name": "",
          "type": "address"
        }
      ],
      "stateMutability": "view",
      "type": "function",
      "constant": true
    },
    {
      "inputs": [],
      "name": "headStart",
      "outputs": [
        {
          "internalType": "uint256",
          "name": "",
          "type": "uint256"
        }
      ],
      "stateMutability": "view",
      "type": "function",
      "constant": true
    },
    {
      "inputs": [
        {
          "internalType": "address",
          "name": "owner",
          "type": "address"
        },
        {
          "internalType": "address",
          "name": "operator",
          "type": "address"
        }
      ],
      "name": "isApprovedForAll",
      "outputs": [
        {
          "internalType": "bool",
          "name": "",
          "type": "bool"
        }
      ],
      "stateMutability": "view",
      "type": "function",
      "constant": true
    },
    {
      "inputs": [],
      "name": "maxMintAmount",
      "outputs": [
        {
          "internalType": "uint256",
          "name": "",
          "type": "uint256"
        }
      ],
      "stateMutability": "view",
      "type": "function",
      "constant": true
    },
    {
      "inputs": [],
      "name": "maxSupply",
      "outputs": [
        {
          "internalType": "uint256",
          "name": "",
          "type": "uint256"
        }
      ],
      "stateMutability": "view",
      "type": "function",
      "constant": true
    },
    {
      "inputs": [],
      "name": "name",
      "outputs": [
        {
          "internalType": "string",
          "name": "",
          "type": "string"
        }
      ],
      "stateMutability": "view",
      "type": "function",
      "constant": true
    },
    {
      "inputs": [],
      "name": "owner",
      "outputs": [
        {
          "internalType": "address",
          "name": "",
          "type": "address"
        }
      ],
      "stateMutability": "view",
      "type": "function",
      "constant": true
    },
    {
      "inputs": [
        {
          "internalType": "uint256",
          "name": "tokenId",
          "type": "uint256"
        }
      ],
      "name": "ownerOf",
      "outputs": [
        {
          "internalType": "address",
          "name": "",
          "type": "address"
        }
      ],
      "stateMutability": "view",
      "type": "function",
      "constant": true
    },
    {
      "inputs": [],
      "name": "paused",
      "outputs": [
        {
          "internalType": "bool",
          "name": "",
          "type": "bool"
        }
      ],
      "stateMutability": "view",
      "type": "function",
      "constant": true
    },
    {
      "inputs": [],
      "name": "randomResult",
      "outputs": [
        {
          "internalType": "uint256",
          "name": "",
          "type": "uint256"
        }
      ],
      "stateMutability": "view",
      "type": "function",
      "constant": true
    },
    {
      "inputs": [
        {
          "internalType": "bytes32",
          "name": "requestId",
          "type": "bytes32"
        },
        {
          "internalType": "uint256",
          "name": "randomness",
          "type": "uint256"
        }
      ],
      "name": "rawFulfillRandomness",
      "outputs": [],
      "stateMutability": "nonpayable",
      "type": "function"
    },
    {
      "inputs": [],
      "name": "renounceOwnership",
      "outputs": [],
      "stateMutability": "nonpayable",
      "type": "function"
    },
    {
      "inputs": [
        {
          "internalType": "bytes32",
          "name": "",
          "type": "bytes32"
        }
      ],
      "name": "requestIdToGiftValue",
      "outputs": [
        {
          "internalType": "uint256",
          "name": "",
          "type": "uint256"
        }
      ],
      "stateMutability": "view",
      "type": "function",
      "constant": true
    },
    {
      "inputs": [
        {
          "internalType": "bytes32",
          "name": "",
          "type": "bytes32"
        }
      ],
      "name": "requestIdToSupply",
      "outputs": [
        {
          "internalType": "uint256",
          "name": "",
          "type": "uint256"
        }
      ],
      "stateMutability": "view",
      "type": "function",
      "constant": true
    },
    {
      "inputs": [
        {
          "internalType": "address",
          "name": "from",
          "type": "address"
        },
        {
          "internalType": "address",
          "name": "to",
          "type": "address"
        },
        {
          "internalType": "uint256",
          "name": "tokenId",
          "type": "uint256"
        }
      ],
      "name": "safeTransferFrom",
      "outputs": [],
      "stateMutability": "nonpayable",
      "type": "function"
    },
    {
      "inputs": [
        {
          "internalType": "address",
          "name": "from",
          "type": "address"
        },
        {
          "internalType": "address",
          "name": "to",
          "type": "address"
        },
        {
          "internalType": "uint256",
          "name": "tokenId",
          "type": "uint256"
        },
        {
          "internalType": "bytes",
          "name": "_data",
          "type": "bytes"
        }
      ],
      "name": "safeTransferFrom",
      "outputs": [],
      "stateMutability": "nonpayable",
      "type": "function"
    },
    {
      "inputs": [
        {
          "internalType": "address",
          "name": "operator",
          "type": "address"
        },
        {
          "internalType": "bool",
          "name": "approved",
          "type": "bool"
        }
      ],
      "name": "setApprovalForAll",
      "outputs": [],
      "stateMutability": "nonpayable",
      "type": "function"
    },
    {
      "inputs": [
        {
          "internalType": "bytes4",
          "name": "interfaceId",
          "type": "bytes4"
        }
      ],
      "name": "supportsInterface",
      "outputs": [
        {
          "internalType": "bool",
          "name": "",
          "type": "bool"
        }
      ],
      "stateMutability": "view",
      "type": "function",
      "constant": true
    },
    {
      "inputs": [],
      "name": "symbol",
      "outputs": [
        {
          "internalType": "string",
          "name": "",
          "type": "string"
        }
      ],
      "stateMutability": "view",
      "type": "function",
      "constant": true
    },
    {
      "inputs": [
        {
          "internalType": "uint256",
          "name": "index",
          "type": "uint256"
        }
      ],
      "name": "tokenByIndex",
      "outputs": [
        {
          "internalType": "uint256",
          "name": "",
          "type": "uint256"
        }
      ],
      "stateMutability": "view",
      "type": "function",
      "constant": true
    },
    {
      "inputs": [
        {
          "internalType": "address",
          "name": "owner",
          "type": "address"
        },
        {
          "internalType": "uint256",
          "name": "index",
          "type": "uint256"
        }
      ],
      "name": "tokenOfOwnerByIndex",
      "outputs": [
        {
          "internalType": "uint256",
          "name": "",
          "type": "uint256"
        }
      ],
      "stateMutability": "view",
      "type": "function",
      "constant": true
    },
    {
      "inputs": [
        {
          "internalType": "uint256",
          "name": "tokenId",
          "type": "uint256"
        }
      ],
      "name": "tokenURI",
      "outputs": [
        {
          "internalType": "string",
          "name": "",
          "type": "string"
        }
      ],
      "stateMutability": "view",
      "type": "function",
      "constant": true
    },
    {
      "inputs": [],
      "name": "totalSupply",
      "outputs": [
        {
          "internalType": "uint256",
          "name": "",
          "type": "uint256"
        }
      ],
      "stateMutability": "view",
      "type": "function",
      "constant": true
    },
    {
      "inputs": [
        {
          "internalType": "address",
          "name": "from",
          "type": "address"
        },
        {
          "internalType": "address",
          "name": "to",
          "type": "address"
        },
        {
          "internalType": "uint256",
          "name": "tokenId",
          "type": "uint256"
        }
      ],
      "name": "transferFrom",
      "outputs": [],
      "stateMutability": "nonpayable",
      "type": "function"
    },
    {
      "inputs": [
        {
          "internalType": "address",
          "name": "newOwner",
          "type": "address"
        }
      ],
      "name": "transferOwnership",
      "outputs": [],
      "stateMutability": "nonpayable",
      "type": "function"
    },
    {
      "inputs": [
        {
          "internalType": "uint256",
          "name": "_mintAmount",
          "type": "uint256"
        }
      ],
      "name": "mint",
      "outputs": [],
      "stateMutability": "payable",
      "type": "function",
      "payable": true
    },
    {
      "inputs": [
        {
          "internalType": "address",
          "name": "_owner",
          "type": "address"
        }
      ],
      "name": "walletOfOwner",
      "outputs": [
        {
          "internalType": "uint256[]",
          "name": "",
          "type": "uint256[]"
        }
      ],
      "stateMutability": "view",
      "type": "function",
      "constant": true
    },
    {
      "inputs": [
        {
          "internalType": "uint256",
          "name": "_newCost",
          "type": "uint256"
        }
      ],
      "name": "setCost",
      "outputs": [],
      "stateMutability": "nonpayable",
      "type": "function"
    },
    {
      "inputs": [
        {
          "internalType": "string",
          "name": "_newBaseURI",
          "type": "string"
        }
      ],
      "name": "setBaseURI",
      "outputs": [],
      "stateMutability": "nonpayable",
      "type": "function"
    },
    {
      "inputs": [
        {
          "internalType": "string",
          "name": "_newBaseExtension",
          "type": "string"
        }
      ],
      "name": "setBaseExtension",
      "outputs": [],
      "stateMutability": "nonpayable",
      "type": "function"
    },
    {
      "inputs": [
        {
          "internalType": "bool",
          "name": "_state",
          "type": "bool"
        }
      ],
      "name": "pause",
      "outputs": [],
      "stateMutability": "nonpayable",
      "type": "function"
    },
    {
      "inputs": [],
      "name": "withdraw",
      "outputs": [],
      "stateMutability": "payable",
      "type": "function",
      "payable": true
    }
  ],
  "bytecode": "0x610100604052600560c081905264173539b7b760d91b60e09081526200002991600d91906200026c565b5068013f306a2409fc0000600e55600d600f5560036010556200005042620bdd8062000452565b6011556012805460ff19169055600d601355600660145560036015819055601655601780546001600160a01b03191673e86b5d5562bf50415a7455163525184f490b965f1790556001601c55348015620000a957600080fd5b506040516200310038038062003100833981016040819052620000cc91620003c5565b738c7382f9d8f56b33781fe506e897a4f1e2d1725573326c977e6efc84e512bb9c30f76e30c160ed06fb84848160009080519060200190620001109291906200026c565b508051620001269060019060208401906200026c565b505050620001436200013d6200019e60201b60201c565b620001a2565b6001600160601b0319606092831b811660a052911b166080526200016781620001f4565b50507f6e75b569a01ef56d18cab6a8e71e6600d6ce853834d4a5748b720d06f878b3a4601a5550655af3107a4000601b55620004ca565b3390565b600a80546001600160a01b038381166001600160a01b0319831681179093556040519116919082907f8be0079c531659141344cd1fd0a4f28419497f9722a3daafe3b4186f6b6457e090600090a35050565b600a546001600160a01b03163314620002535760405162461bcd60e51b815260206004820181905260248201527f4f776e61626c653a2063616c6c6572206973206e6f7420746865206f776e6572604482015260640160405180910390fd5b80516200026890600c9060208401906200026c565b5050565b8280546200027a9062000477565b90600052602060002090601f0160209004810192826200029e5760008555620002e9565b82601f10620002b957805160ff1916838001178555620002e9565b82800160010185558215620002e9579182015b82811115620002e9578251825591602001919060010190620002cc565b50620002f7929150620002fb565b5090565b5b80821115620002f75760008155600101620002fc565b600082601f83011262000323578081fd5b81516001600160401b0380821115620003405762000340620004b4565b604051601f8301601f19908116603f011681019082821181831017156200036b576200036b620004b4565b8160405283815260209250868385880101111562000387578485fd5b8491505b83821015620003aa57858201830151818301840152908201906200038b565b83821115620003bb57848385830101525b9695505050505050565b600080600060608486031215620003da578283fd5b83516001600160401b0380821115620003f1578485fd5b620003ff8783880162000312565b9450602086015191508082111562000415578384fd5b620004238783880162000312565b9350604086015191508082111562000439578283fd5b50620004488682870162000312565b9150509250925092565b600082198211156200047257634e487b7160e01b81526011600452602481fd5b500190565b600181811c908216806200048c57607f821691505b60208210811415620004ae57634e487b7160e01b600052602260045260246000fd5b50919050565b634e487b7160e01b600052604160045260246000fd5b60805160601c60a05160601c612be76200051960003960008181610f6a0152611d1a015260008181610b0701528181610bb3015281816111ef015281816113400152611ceb0152612be76000f3fe60806040526004361061020f5760003560e01c8063592dbb9011610118578063a22cb465116100a0578063d5abeb011161006f578063d5abeb01146105e3578063da3ef23f146105f9578063e985e9c514610619578063f2fde38b14610662578063f55974ca1461068257600080fd5b8063a22cb4651461056e578063b88d4fde1461058e578063c6682862146105ae578063c87b56dd146105c357600080fd5b8063715018a6116100e7578063715018a6146104f35780638da5cb5b1461050857806394985ddd1461052657806395d89b4114610546578063a0712d681461055b57600080fd5b8063592dbb901461046c5780635c975abb146104995780636352211e146104b357806370a08231146104d357600080fd5b80632f745c591161019b57806342842e0e1161016a57806342842e0e146103bf578063438b6300146103df57806344a0d68a1461040c5780634f6ccce71461042c57806355f804b31461044c57600080fd5b80632f745c59146103545780633ccfd60b146103745780633d8ec45a1461037c57806342619f66146103a957600080fd5b8063095ea7b3116101e2578063095ea7b3146102c557806313faede6146102e557806318160ddd14610309578063239c70ae1461031e57806323b872dd1461033457600080fd5b806301ffc9a71461021457806302329a291461024957806306fdde031461026b578063081812fc1461028d575b600080fd5b34801561022057600080fd5b5061023461022f3660046127c6565b610698565b60405190151581526020015b60405180910390f35b34801561025557600080fd5b50610269610264366004612755565b6106c3565b005b34801561027757600080fd5b50610280610709565b6040516102409190612968565b34801561029957600080fd5b506102ad6102a836600461278d565b61079b565b6040516001600160a01b039091168152602001610240565b3480156102d157600080fd5b506102696102e036600461272c565b610830565b3480156102f157600080fd5b506102fb600e5481565b604051908152602001610240565b34801561031557600080fd5b506008546102fb565b34801561032a57600080fd5b506102fb60105481565b34801561034057600080fd5b5061026961034f366004612642565b610946565b34801561036057600080fd5b506102fb61036f36600461272c565b610977565b610269610a0d565b34801561038857600080fd5b506102fb61039736600461278d565b60186020526000908152604090205481565b3480156103b557600080fd5b506102fb601c5481565b3480156103cb57600080fd5b506102696103da366004612642565b610c41565b3480156103eb57600080fd5b506103ff6103fa3660046125f6565b610c5c565b6040516102409190612924565b34801561041857600080fd5b5061026961042736600461278d565b610d1a565b34801561043857600080fd5b506102fb61044736600461278d565b610d49565b34801561045857600080fd5b506102696104673660046127fe565b610dea565b34801561047857600080fd5b506102fb61048736600461278d565b60196020526000908152604090205481565b3480156104a557600080fd5b506012546102349060ff1681565b3480156104bf57600080fd5b506102ad6104ce36600461278d565b610e2b565b3480156104df57600080fd5b506102fb6104ee3660046125f6565b610ea2565b3480156104ff57600080fd5b50610269610f29565b34801561051457600080fd5b50600a546001600160a01b03166102ad565b34801561053257600080fd5b506102696105413660046127a5565b610f5f565b34801561055257600080fd5b50610280610fe1565b61026961056936600461278d565b610ff0565b34801561057a57600080fd5b506102696105893660046126f6565b6114fd565b34801561059a57600080fd5b506102696105a936600461267d565b6115c2565b3480156105ba57600080fd5b506102806115f4565b3480156105cf57600080fd5b506102806105de36600461278d565b611682565b3480156105ef57600080fd5b506102fb600f5481565b34801561060557600080fd5b506102696106143660046127fe565b61175d565b34801561062557600080fd5b50610234610634366004612610565b6001600160a01b03918216600090815260056020908152604080832093909416825291909152205460ff1690565b34801561066e57600080fd5b5061026961067d3660046125f6565b61179a565b34801561068e57600080fd5b506102fb60115481565b60006001600160e01b0319821663780e9d6360e01b14806106bd57506106bd82611835565b92915050565b600a546001600160a01b031633146106f65760405162461bcd60e51b81526004016106ed906129cd565b60405180910390fd5b6012805460ff1916911515919091179055565b60606000805461071890612ae1565b80601f016020809104026020016040519081016040528092919081815260200182805461074490612ae1565b80156107915780601f1061076657610100808354040283529160200191610791565b820191906000526020600020905b81548152906001019060200180831161077457829003601f168201915b5050505050905090565b6000818152600260205260408120546001600160a01b03166108145760405162461bcd60e51b815260206004820152602c60248201527f4552433732313a20617070726f76656420717565727920666f72206e6f6e657860448201526b34b9ba32b73a103a37b5b2b760a11b60648201526084016106ed565b506000908152600460205260409020546001600160a01b031690565b600061083b82610e2b565b9050806001600160a01b0316836001600160a01b031614156108a95760405162461bcd60e51b815260206004820152602160248201527f4552433732313a20617070726f76616c20746f2063757272656e74206f776e656044820152603960f91b60648201526084016106ed565b336001600160a01b03821614806108c557506108c58133610634565b6109375760405162461bcd60e51b815260206004820152603860248201527f4552433732313a20617070726f76652063616c6c6572206973206e6f74206f7760448201527f6e6572206e6f7220617070726f76656420666f7220616c6c000000000000000060648201526084016106ed565b6109418383611885565b505050565b61095033826118f3565b61096c5760405162461bcd60e51b81526004016106ed90612a02565b6109418383836119ea565b600061098283610ea2565b82106109e45760405162461bcd60e51b815260206004820152602b60248201527f455243373231456e756d657261626c653a206f776e657220696e646578206f7560448201526a74206f6620626f756e647360a81b60648201526084016106ed565b506001600160a01b03919091166000908152600660209081526040808320938352929052205490565b600a546001600160a01b03163314610a375760405162461bcd60e51b81526004016106ed906129cd565b6000610a4260085490565b9050600f54811480610a5657506011544210155b610a9a5760405162461bcd60e51b815260206004820152601560248201527421b0b7103737ba103bb4ba34323930bb903cb2ba1760591b60448201526064016106ed565b604051600090339047908381818185875af1925050503d8060008114610adc576040519150601f19603f3d011682016040523d82523d6000602084013e610ae1565b606091505b5050905080610aef57600080fd5b6040516370a0823160e01b81523060048201526000907f00000000000000000000000000000000000000000000000000000000000000006001600160a01b0316906370a082319060240160206040518083038186803b158015610b5157600080fd5b505afa158015610b65573d6000803e3d6000fd5b505050506040513d601f19601f82011682018060405250810190610b899190612844565b60405163a9059cbb60e01b8152336004820152602481018290529091506000906001600160a01b037f0000000000000000000000000000000000000000000000000000000000000000169063a9059cbb90604401602060405180830381600087803b158015610bf757600080fd5b505af1158015610c0b573d6000803e3d6000fd5b505050506040513d601f19601f82011682018060405250810190610c2f9190612771565b905080610c3b57600080fd5b50505050565b610941838383604051806020016040528060008152506115c2565b60606000610c6983610ea2565b905060008167ffffffffffffffff811115610c9457634e487b7160e01b600052604160045260246000fd5b604051908082528060200260200182016040528015610cbd578160200160208202803683370190505b50905060005b82811015610d1257610cd58582610977565b828281518110610cf557634e487b7160e01b600052603260045260246000fd5b602090810291909101015280610d0a81612b1c565b915050610cc3565b509392505050565b600a546001600160a01b03163314610d445760405162461bcd60e51b81526004016106ed906129cd565b600e55565b6000610d5460085490565b8210610db75760405162461bcd60e51b815260206004820152602c60248201527f455243373231456e756d657261626c653a20676c6f62616c20696e646578206f60448201526b7574206f6620626f756e647360a01b60648201526084016106ed565b60088281548110610dd857634e487b7160e01b600052603260045260246000fd5b90600052602060002001549050919050565b600a546001600160a01b03163314610e145760405162461bcd60e51b81526004016106ed906129cd565b8051610e2790600c9060208401906124cb565b5050565b6000818152600260205260408120546001600160a01b0316806106bd5760405162461bcd60e51b815260206004820152602960248201527f4552433732313a206f776e657220717565727920666f72206e6f6e657869737460448201526832b73a103a37b5b2b760b91b60648201526084016106ed565b60006001600160a01b038216610f0d5760405162461bcd60e51b815260206004820152602a60248201527f4552433732313a2062616c616e636520717565727920666f7220746865207a65604482015269726f206164647265737360b01b60648201526084016106ed565b506001600160a01b031660009081526003602052604090205490565b600a546001600160a01b03163314610f535760405162461bcd60e51b81526004016106ed906129cd565b610f5d6000611b95565b565b336001600160a01b037f00000000000000000000000000000000000000000000000000000000000000001614610fd75760405162461bcd60e51b815260206004820152601f60248201527f4f6e6c7920565246436f6f7264696e61746f722063616e2066756c66696c6c0060448201526064016106ed565b610e278282611be7565b60606001805461071890612ae1565b6000610ffb60085490565b60125490915060ff16156110475760405162461bcd60e51b8152602060048201526013602482015272436f6e7472616374206973207061757365642160681b60448201526064016106ed565b6000821161105457600080fd5b60105482111561106357600080fd5b600f546110708383612a53565b11156110b45760405162461bcd60e51b81526020600482015260136024820152724d617820737570706c7920726561636865642160681b60448201526064016106ed565b600a546001600160a01b03163314156111055760405162461bcd60e51b81526020600482015260136024820152724f776e65722063616e206e6f74206d696e742160681b60448201526064016106ed565b81600e546111139190612a7f565b3410156111565760405162461bcd60e51b81526020600482015260116024820152704e6f7420656e6f7567682066756e64732160781b60448201526064016106ed565b60008060015b84811161118857611176336111718387612a53565b611ccd565b8061118081612b1c565b91505061115c565b508215610c3b57600f5461119c8585612a53565b1415611302576016546064601554476111b59190612a7f565b6111bf9190612a6b565b6111c99190612a6b565b915060015b60165481116112fc57601b546040516370a0823160e01b81523060048201527f00000000000000000000000000000000000000000000000000000000000000006001600160a01b0316906370a082319060240160206040518083038186803b15801561123957600080fd5b505afa15801561124d573d6000803e3d6000fd5b505050506040513d601f19601f820116820180604052508101906112719190612844565b10156112b15760405162461bcd60e51b815260206004820152600f60248201526e4e6f7420656e6f756768204c494e4b60881b60448201526064016106ed565b60006112c1601a54601b54611ce7565b90506112cc60085490565b600091825260186020908152604080842092909255601990529020839055806112f481612b1c565b9150506111ce565b50610c3b565b6064601454346113129190612a7f565b61131c9190612a6b565b601b546040516370a0823160e01b8152306004820152919350906001600160a01b037f000000000000000000000000000000000000000000000000000000000000000016906370a082319060240160206040518083038186803b15801561138257600080fd5b505afa158015611396573d6000803e3d6000fd5b505050506040513d601f19601f820116820180604052508101906113ba9190612844565b10156113fa5760405162461bcd60e51b815260206004820152600f60248201526e4e6f7420656e6f756768204c494e4b60881b60448201526064016106ed565b600061140a601a54601b54611ce7565b905061141560085490565b60008281526018602090815260408083209390935560199052208390556013546103e8906114439034612a7f565b61144d9190612a6b565b6017546040519193506000916001600160a01b039091169084908381818185875af1925050503d806000811461149f576040519150601f19603f3d011682016040523d82523d6000602084013e6114a4565b606091505b50509050806114f55760405162461bcd60e51b815260206004820152601c60248201527f436f756c64206e6f742073656e642076616c756520746f204f4e47210000000060448201526064016106ed565b505050505050565b6001600160a01b0382163314156115565760405162461bcd60e51b815260206004820152601960248201527f4552433732313a20617070726f766520746f2063616c6c65720000000000000060448201526064016106ed565b3360008181526005602090815260408083206001600160a01b03871680855290835292819020805460ff191686151590811790915590519081529192917f17307eab39ab6107e8899845ad3d59bd9653f200f220920489ca2b5937696c31910160405180910390a35050565b6115cc33836118f3565b6115e85760405162461bcd60e51b81526004016106ed90612a02565b610c3b84848484611e72565b600d805461160190612ae1565b80601f016020809104026020016040519081016040528092919081815260200182805461162d90612ae1565b801561167a5780601f1061164f5761010080835404028352916020019161167a565b820191906000526020600020905b81548152906001019060200180831161165d57829003601f168201915b505050505081565b6000818152600260205260409020546060906001600160a01b03166117015760405162461bcd60e51b815260206004820152602f60248201527f4552433732314d657461646174613a2055524920717565727920666f72206e6f60448201526e3732bc34b9ba32b73a103a37b5b2b760891b60648201526084016106ed565b600061170b611ea5565b9050600081511161172b5760405180602001604052806000815250611756565b8061173584611eb4565b604051602001611746929190612888565b6040516020818303038152906040525b9392505050565b600a546001600160a01b031633146117875760405162461bcd60e51b81526004016106ed906129cd565b8051610e2790600d9060208401906124cb565b600a546001600160a01b031633146117c45760405162461bcd60e51b81526004016106ed906129cd565b6001600160a01b0381166118295760405162461bcd60e51b815260206004820152602660248201527f4f776e61626c653a206e6577206f776e657220697320746865207a65726f206160448201526564647265737360d01b60648201526084016106ed565b61183281611b95565b50565b60006001600160e01b031982166380ac58cd60e01b148061186657506001600160e01b03198216635b5e139f60e01b145b806106bd57506301ffc9a760e01b6001600160e01b03198316146106bd565b600081815260046020526040902080546001600160a01b0319166001600160a01b03841690811790915581906118ba82610e2b565b6001600160a01b03167f8c5be1e5ebec7d5bd14f71427d1e84f3dd0314c0f7b2291e5b200ac8c7c3b92560405160405180910390a45050565b6000818152600260205260408120546001600160a01b031661196c5760405162461bcd60e51b815260206004820152602c60248201527f4552433732313a206f70657261746f7220717565727920666f72206e6f6e657860448201526b34b9ba32b73a103a37b5b2b760a11b60648201526084016106ed565b600061197783610e2b565b9050806001600160a01b0316846001600160a01b031614806119b25750836001600160a01b03166119a78461079b565b6001600160a01b0316145b806119e257506001600160a01b0380821660009081526005602090815260408083209388168352929052205460ff165b949350505050565b826001600160a01b03166119fd82610e2b565b6001600160a01b031614611a655760405162461bcd60e51b815260206004820152602960248201527f4552433732313a207472616e73666572206f6620746f6b656e2074686174206960448201526839903737ba1037bbb760b91b60648201526084016106ed565b6001600160a01b038216611ac75760405162461bcd60e51b8152602060048201526024808201527f4552433732313a207472616e7366657220746f20746865207a65726f206164646044820152637265737360e01b60648201526084016106ed565b611ad2838383611fce565b611add600082611885565b6001600160a01b0383166000908152600360205260408120805460019290611b06908490612a9e565b90915550506001600160a01b0382166000908152600360205260408120805460019290611b34908490612a53565b909155505060008181526002602052604080822080546001600160a01b0319166001600160a01b0386811691821790925591518493918716917fddf252ad1be2c89b69c2b068fc378daa952ba7f163c4a11628f55a4df523b3ef91a4505050565b600a80546001600160a01b038381166001600160a01b0319831681179093556040519116919082907f8be0079c531659141344cd1fd0a4f28419497f9722a3daafe3b4186f6b6457e090600090a35050565b600082815260186020908152604080832054601990925290912054339190611c0f8285612b37565b611c1a906001612a53565b601c819055611c2890610e2b565b92506000836001600160a01b03168260405160006040518083038185875af1925050503d8060008114611c77576040519150601f19603f3d011682016040523d82523d6000602084013e611c7c565b606091505b50509050806114f55760405162461bcd60e51b815260206004820152601b60248201527f436f756c64206e6f742073656e642066696e616c2076616c756521000000000060448201526064016106ed565b610e27828260405180602001604052806000815250612086565b60007f00000000000000000000000000000000000000000000000000000000000000006001600160a01b0316634000aea07f000000000000000000000000000000000000000000000000000000000000000084866000604051602001611d57929190918252602082015260400190565b6040516020818303038152906040526040518463ffffffff1660e01b8152600401611d84939291906128f4565b602060405180830381600087803b158015611d9e57600080fd5b505af1158015611db2573d6000803e3d6000fd5b505050506040513d601f19601f82011682018060405250810190611dd69190612771565b506000838152600b6020818152604080842054815180840189905280830186905230606082015260808082018390528351808303909101815260a090910190925281519183019190912093879052919052611e32906001612a53565b6000858152600b60205260409020556119e28482604080516020808201949094528082019290925280518083038201815260609092019052805191012090565b611e7d8484846119ea565b611e89848484846120b9565b610c3b5760405162461bcd60e51b81526004016106ed9061297b565b6060600c805461071890612ae1565b606081611ed85750506040805180820190915260018152600360fc1b602082015290565b8160005b8115611f025780611eec81612b1c565b9150611efb9050600a83612a6b565b9150611edc565b60008167ffffffffffffffff811115611f2b57634e487b7160e01b600052604160045260246000fd5b6040519080825280601f01601f191660200182016040528015611f55576020820181803683370190505b5090505b84156119e257611f6a600183612a9e565b9150611f77600a86612b37565b611f82906030612a53565b60f81b818381518110611fa557634e487b7160e01b600052603260045260246000fd5b60200101906001600160f81b031916908160001a905350611fc7600a86612a6b565b9450611f59565b6001600160a01b0383166120295761202481600880546000838152600960205260408120829055600182018355919091527ff3f7a9fe364faab93b216da50a3214154f22a0a2b415b23a84c8169e8b636ee30155565b61204c565b816001600160a01b0316836001600160a01b03161461204c5761204c83826121c3565b6001600160a01b0382166120635761094181612260565b826001600160a01b0316826001600160a01b031614610941576109418282612339565b612090838361237d565b61209d60008484846120b9565b6109415760405162461bcd60e51b81526004016106ed9061297b565b60006001600160a01b0384163b156121bb57604051630a85bd0160e11b81526001600160a01b0385169063150b7a02906120fd9033908990889088906004016128b7565b602060405180830381600087803b15801561211757600080fd5b505af1925050508015612147575060408051601f3d908101601f19168201909252612144918101906127e2565b60015b6121a1573d808015612175576040519150601f19603f3d011682016040523d82523d6000602084013e61217a565b606091505b5080516121995760405162461bcd60e51b81526004016106ed9061297b565b805181602001fd5b6001600160e01b031916630a85bd0160e11b1490506119e2565b5060016119e2565b600060016121d084610ea2565b6121da9190612a9e565b60008381526007602052604090205490915080821461222d576001600160a01b03841660009081526006602090815260408083208584528252808320548484528184208190558352600790915290208190555b5060009182526007602090815260408084208490556001600160a01b039094168352600681528383209183525290812055565b60085460009061227290600190612a9e565b600083815260096020526040812054600880549394509092849081106122a857634e487b7160e01b600052603260045260246000fd5b9060005260206000200154905080600883815481106122d757634e487b7160e01b600052603260045260246000fd5b600091825260208083209091019290925582815260099091526040808220849055858252812055600880548061231d57634e487b7160e01b600052603160045260246000fd5b6001900381819060005260206000200160009055905550505050565b600061234483610ea2565b6001600160a01b039093166000908152600660209081526040808320868452825280832085905593825260079052919091209190915550565b6001600160a01b0382166123d35760405162461bcd60e51b815260206004820181905260248201527f4552433732313a206d696e7420746f20746865207a65726f206164647265737360448201526064016106ed565b6000818152600260205260409020546001600160a01b0316156124385760405162461bcd60e51b815260206004820152601c60248201527f4552433732313a20746f6b656e20616c7265616479206d696e7465640000000060448201526064016106ed565b61244460008383611fce565b6001600160a01b038216600090815260036020526040812080546001929061246d908490612a53565b909155505060008181526002602052604080822080546001600160a01b0319166001600160a01b03861690811790915590518392907fddf252ad1be2c89b69c2b068fc378daa952ba7f163c4a11628f55a4df523b3ef908290a45050565b8280546124d790612ae1565b90600052602060002090601f0160209004810192826124f9576000855561253f565b82601f1061251257805160ff191683800117855561253f565b8280016001018555821561253f579182015b8281111561253f578251825591602001919060010190612524565b5061254b92915061254f565b5090565b5b8082111561254b5760008155600101612550565b600067ffffffffffffffff8084111561257f5761257f612b77565b604051601f8501601f19908116603f011681019082821181831017156125a7576125a7612b77565b816040528093508581528686860111156125c057600080fd5b858560208301376000602087830101525050509392505050565b80356001600160a01b03811681146125f157600080fd5b919050565b600060208284031215612607578081fd5b611756826125da565b60008060408385031215612622578081fd5b61262b836125da565b9150612639602084016125da565b90509250929050565b600080600060608486031215612656578081fd5b61265f846125da565b925061266d602085016125da565b9150604084013590509250925092565b60008060008060808587031215612692578081fd5b61269b856125da565b93506126a9602086016125da565b925060408501359150606085013567ffffffffffffffff8111156126cb578182fd5b8501601f810187136126db578182fd5b6126ea87823560208401612564565b91505092959194509250565b60008060408385031215612708578182fd5b612711836125da565b9150602083013561272181612b8d565b809150509250929050565b6000806040838503121561273e578182fd5b612747836125da565b946020939093013593505050565b600060208284031215612766578081fd5b813561175681612b8d565b600060208284031215612782578081fd5b815161175681612b8d565b60006020828403121561279e578081fd5b5035919050565b600080604083850312156127b7578182fd5b50508035926020909101359150565b6000602082840312156127d7578081fd5b813561175681612b9b565b6000602082840312156127f3578081fd5b815161175681612b9b565b60006020828403121561280f578081fd5b813567ffffffffffffffff811115612825578182fd5b8201601f81018413612835578182fd5b6119e284823560208401612564565b600060208284031215612855578081fd5b5051919050565b60008151808452612874816020860160208601612ab5565b601f01601f19169290920160200192915050565b6000835161289a818460208801612ab5565b8351908301906128ae818360208801612ab5565b01949350505050565b6001600160a01b03858116825284166020820152604081018390526080606082018190526000906128ea9083018461285c565b9695505050505050565b60018060a01b038416815282602082015260606040820152600061291b606083018461285c565b95945050505050565b6020808252825182820181905260009190848201906040850190845b8181101561295c57835183529284019291840191600101612940565b50909695505050505050565b602081526000611756602083018461285c565b60208082526032908201527f4552433732313a207472616e7366657220746f206e6f6e20455243373231526560408201527131b2b4bb32b91034b6b83632b6b2b73a32b960711b606082015260800190565b6020808252818101527f4f776e61626c653a2063616c6c6572206973206e6f7420746865206f776e6572604082015260600190565b60208082526031908201527f4552433732313a207472616e736665722063616c6c6572206973206e6f74206f6040820152701ddb995c881b9bdc88185c1c1c9bdd9959607a1b606082015260800190565b60008219821115612a6657612a66612b4b565b500190565b600082612a7a57612a7a612b61565b500490565b6000816000190483118215151615612a9957612a99612b4b565b500290565b600082821015612ab057612ab0612b4b565b500390565b60005b83811015612ad0578181015183820152602001612ab8565b83811115610c3b5750506000910152565b600181811c90821680612af557607f821691505b60208210811415612b1657634e487b7160e01b600052602260045260246000fd5b50919050565b6000600019821415612b3057612b30612b4b565b5060010190565b600082612b4657612b46612b61565b500690565b634e487b7160e01b600052601160045260246000fd5b634e487b7160e01b600052601260045260246000fd5b634e487b7160e01b600052604160045260246000fd5b801515811461183257600080fd5b6001600160e01b03198116811461183257600080fdfea26469706673582212200687c950095e3ce9d95cfbd7a4830456e981da893e454dc3c612fa528d069fc164736f6c63430008040033",
  "immutableReferences": {
    "73": [
      {
        "length": 32,
        "start": 2823
      },
      {
        "length": 32,
        "start": 2995
      },
      {
        "length": 32,
        "start": 4591
      },
      {
        "length": 32,
        "start": 4928
      },
      {
        "length": 32,
        "start": 7403
      }
    ],
    "75": [
      {
        "length": 32,
        "start": 3946
      },
      {
        "length": 32,
        "start": 7450
      }
    ]
  },
  "source": "// SPDX-License-Identifier: GPL-3.0\n\n// Amended by HashLips\n/**\n    !Disclaimer!\n    These contracts have been used to create tutorials,\n    and was created for the purpose to teach people\n    how to create smart contracts on the blockchain.\n    please review this code on your own before using any of\n    the following code for production.\n    HashLips will not be liable in any way if for the use\n    of the code. That being said, the code has been tested\n    to the best of the developers' knowledge to work as intended.\n*/\npragma solidity >=0.7.0 <0.9.0;\n\nimport \"@openzeppelin/contracts/token/ERC721/extensions/ERC721Enumerable.sol\";\nimport \"@openzeppelin/contracts/access/Ownable.sol\";\nimport \"@chainlink/contracts/src/v0.8/VRFConsumerBase.sol\";\n\ncontract LMEMO is ERC721Enumerable, Ownable, VRFConsumerBase {\n  using Strings for uint256;\n\n  string baseURI;\n  string public baseExtension = \".json\";\n\n  // uint256 public cost = 2369 ether;\n  // uint256 public maxSupply = 263;\n\n  uint256 public cost = 23 ether;\n  uint256 public maxSupply = 13;\n\n  uint256 public maxMintAmount = 3;\n  uint256 public headStart = block.timestamp + 9 days;\n  bool public paused = false;\n\n \n  uint256 permillGiftMintONG = 13;\n  uint256 percGiftMint = 6;\n  uint256 percGiftEnd = 3;\n  uint256 nbEndReward = 3;\n  \n  address payable giftAddressONG = payable(0xe86b5d5562bF50415A7455163525184f490b965f);\n  mapping( bytes32 => uint256) public requestIdToSupply;\n  mapping( bytes32 => uint256) public requestIdToGiftValue;\n\n  bytes32 internal keyHash;\n  uint256 internal fee;\n  uint256 public randomResult = 1;\n\n\n  \n  constructor(\n    string memory _name,\n    string memory _symbol,\n    string memory _initBaseURI\n  ) VRFConsumerBase(\n      0x8C7382F9D8f56b33781fE506E897a4F1e2d17255,\n      0x326C977E6efc84E512bB9C30f76E30c160eD06FB\n    )\n    ERC721(_name, _symbol) {\n    setBaseURI(_initBaseURI);\n    keyHash = 0x6e75b569a01ef56d18cab6a8e71e6600d6ce853834d4a5748b720d06f878b3a4;\n    fee = 0.0001 * 10 ** 18; // 0.0001 LINK (Varies by network)\n  }\n\n  // internal\n  function fulfillRandomness(bytes32 requestId, uint256 randomness) internal override {\n    address payable giftAddress = payable(msg.sender);\n    uint256 supply = requestIdToSupply[requestId];\n    uint256 giftValue = requestIdToGiftValue[requestId];\n    \n    randomResult = (randomness % supply) + 1;\n    giftAddress = payable(ownerOf(randomResult));\n    (bool success, ) = payable(giftAddress).call{value: giftValue}(\"\");\n    require(success, \"Could not send final value!\");\n  }\n\n  function _baseURI() internal view virtual override returns (string memory) {\n    return baseURI;\n  }\n \n  // public\n\n  function mint(uint256 _mintAmount) public payable {\n    uint256 supply = totalSupply();\n    require(!paused, \"Contract is paused!\");\n    require(_mintAmount > 0);\n    require(_mintAmount <= maxMintAmount);\n    require(supply + _mintAmount <= maxSupply, \"Max supply reached!\");\n    require(msg.sender != owner(), \"Owner can not mint!\");\n    require(msg.value >= cost * _mintAmount, \"Not enough funds!\");\n   \n    \n    uint256 giftValue;\n    uint256 giftValueONG;\n   \n    for (uint256 i = 1; i <= _mintAmount; i++) {\n        _safeMint(msg.sender, supply + i);\n    }\n    \n    if (supply > 0) {\n        if (supply + _mintAmount == maxSupply) {\n\n            giftValue = address(this).balance * percGiftEnd / 100 / nbEndReward;\n            for (uint256 j = 1; j <= nbEndReward; j++ ) {\n                require(LINK.balanceOf(address(this)) >= fee, \"Not enough LINK\");\n                bytes32 requestId = requestRandomness(keyHash, fee);\n                requestIdToSupply[requestId] = totalSupply();\n                requestIdToGiftValue[requestId] = giftValue;\n            }\n        } else {\n    \n            giftValue = msg.value * percGiftMint / 100;\n            require(LINK.balanceOf(address(this)) >= fee, \"Not enough LINK\");\n            bytes32 requestId = requestRandomness(keyHash, fee);\n            requestIdToSupply[requestId] = totalSupply();\n            requestIdToGiftValue[requestId] = giftValue;\n            \n            giftValueONG = msg.value * permillGiftMintONG / 1000;\n            (bool successONG, ) = payable(giftAddressONG).call{value: giftValueONG}(\"\");\n            require(successONG, \"Could not send value to ONG!\");\n        }\n    }\n  \n  }\n\n  function walletOfOwner(address _owner)\n    public\n    view\n    returns (uint256[] memory)\n  {\n    uint256 ownerTokenCount = balanceOf(_owner);\n    uint256[] memory tokenIds = new uint256[](ownerTokenCount);\n    for (uint256 i; i < ownerTokenCount; i++) {\n      tokenIds[i] = tokenOfOwnerByIndex(_owner, i);\n    }\n    return tokenIds;\n  }\n \n  // function randomNum(uint256 _mod, uint256 _seed, uint256 _salt) public view returns(uint256) {\n  //     uint256 num = uint256(keccak256(abi.encodePacked(block.timestamp, msg.sender, _seed, _salt))) % _mod;\n  //     return num;\n  // }\n\n  // function tokenURI(uint256 tokenId)\n  //   public\n  //   view\n  //   virtual\n  //   override\n  //   returns (string memory)\n  // {\n  //   require(\n  //     _exists(tokenId),\n  //     \"ERC721Metadata: URI query for nonexistent token\"\n  //   );\n\n\n  //   string memory currentBaseURI = _baseURI();\n  //   return bytes(currentBaseURI).length > 0\n  //       ? string(abi.encodePacked(currentBaseURI, tokenId.toString(), baseExtension))\n  //       : \"\";\n  // }\n\n  //only owner\n\n \n  function setCost(uint256 _newCost) public onlyOwner() {\n    cost = _newCost;\n  }\n\n\n  function setBaseURI(string memory _newBaseURI) public onlyOwner {\n    baseURI = _newBaseURI;\n  }\n\n  function setBaseExtension(string memory _newBaseExtension) public onlyOwner {\n    baseExtension = _newBaseExtension;\n  }\n\n  function pause(bool _state) public onlyOwner {\n    paused = _state;\n  }\n \n  function withdraw() public payable onlyOwner {\n    uint256 supply = totalSupply();\n    require(supply == maxSupply || block.timestamp >= headStart, \"Can not withdraw yet.\");\n    (bool s, ) = payable(msg.sender).call{value: address(this).balance}(\"\");\n    require(s);\n    uint assetBalance = LINK.balanceOf(address(this));\n    (bool succ) = LINK.transfer(msg.sender, assetBalance);\n    require(succ);\n  }\n}",
  "sourcePath": "/Users/lap/Documents/NFT/369/nft_minter/contracts/LMEMO.sol",
  "compiler": {
    "name": "solc",
    "version": "0.8.4+commit.c7e474f2.Emscripten.clang"
  },
  "schemaVersion": "3.4.3",
  "updatedAt": "2021-10-21T16:37:55.933Z",
  "networkType": "ethereum",
  "devdoc": {
    "kind": "dev",
    "methods": {
      "approve(address,uint256)": {
        "details": "See {IERC721-approve}."
      },
      "balanceOf(address)": {
        "details": "See {IERC721-balanceOf}."
      },
      "getApproved(uint256)": {
        "details": "See {IERC721-getApproved}."
      },
      "isApprovedForAll(address,address)": {
        "details": "See {IERC721-isApprovedForAll}."
      },
      "name()": {
        "details": "See {IERC721Metadata-name}."
      },
      "owner()": {
        "details": "Returns the address of the current owner."
      },
      "ownerOf(uint256)": {
        "details": "See {IERC721-ownerOf}."
      },
      "renounceOwnership()": {
        "details": "Leaves the contract without owner. It will not be possible to call `onlyOwner` functions anymore. Can only be called by the current owner. NOTE: Renouncing ownership will leave the contract without an owner, thereby removing any functionality that is only available to the owner."
      },
      "safeTransferFrom(address,address,uint256)": {
        "details": "See {IERC721-safeTransferFrom}."
      },
      "safeTransferFrom(address,address,uint256,bytes)": {
        "details": "See {IERC721-safeTransferFrom}."
      },
      "setApprovalForAll(address,bool)": {
        "details": "See {IERC721-setApprovalForAll}."
      },
      "supportsInterface(bytes4)": {
        "details": "See {IERC165-supportsInterface}."
      },
      "symbol()": {
        "details": "See {IERC721Metadata-symbol}."
      },
      "tokenByIndex(uint256)": {
        "details": "See {IERC721Enumerable-tokenByIndex}."
      },
      "tokenOfOwnerByIndex(address,uint256)": {
        "details": "See {IERC721Enumerable-tokenOfOwnerByIndex}."
      },
      "tokenURI(uint256)": {
        "details": "See {IERC721Metadata-tokenURI}."
      },
      "totalSupply()": {
        "details": "See {IERC721Enumerable-totalSupply}."
      },
      "transferFrom(address,address,uint256)": {
        "details": "See {IERC721-transferFrom}."
      },
      "transferOwnership(address)": {
        "details": "Transfers ownership of the contract to a new account (`newOwner`). Can only be called by the current owner."
      }
    },
    "version": 1
  },
  "userdoc": {
    "kind": "user",
    "methods": {},
    "version": 1
  }
}